:100000000C9473030C94BA030C94BA030C94BA03C3
:100010000C94BA030C94BA030C94BA030C94BA036C
:100020000C94BA030C94BA030C941C280C94D1269B
:100030000C94A0290C94BA030C94BA030C94BA0340
:100040000C94BA030C94BA030C94BA030C94BA033C
:100050000C94BA030C9462290C94BA030C94BA035E
:100060000C94BA030C94BA030C94BA030C94BA031C
:100070000C94BA030C94BA030C94BA030C94BA030C
:100080000C94BA030C94BA030C94BA030C94BA03FC
:100090000C94BA030C94BA030C94BA030C94BA03EC
:1000A0000C94BA030C94BA030C94BA032E072E07CF
:1000B00061076107D407F207FE08FE08FD07710813
:1000C000820882084F0E520E6E0E7B0E820EA20E1A
:1000D000400F400F400F400F400FA50EA70EAC0E73
:1000E000D20EF50EF80EFB0E1F0F8E109910C410D5
:1000F00000113B117A11BE11C111C611C911CC11E9
:10010000CF11D211D511D811DB11DE11E111E4119B
:10011000E911EE11F111F411F91134127312BB123D
:10012000BE12C1122C13ED13F013F51300140314B7
:100130000E1411141C141F142A142D143814E91E43
:10014000101FB920101FB9205C1F7F1FB920742019
:100150008420832B832B962B962B8C2B962B962BE4
:10016000962B832B832B912B962B962B912B000078
:10017000000000000000000000000000000000007F
:10018000000000000000000000000000000000006F
:1001900000007E0F00D4FFFFFFC7000000780000C2
:1001A0000000000000002A2B2800000000000000D2
:1001B00000000000000000000029000000002C1ECC
:1001C0003420212224342627252E362D3738271E89
:1001D0001F202122232425263333362E37381F04AF
:1001E00005060708090A0B0C0D0E0F101112131447
:1001F00015161718191A1B1C1D2F3130232D350405
:1002000005060708090A0B0C0D0E0F101112131426
:1002100015161718191A1B1C1D2F3130354C0501E6
:100220000902A10185020901A10005091901290896
:100230001500250195087501810205010930093174
:100240001581257F95027508810609381581257F5E
:10025000950175088106050C0A38021581257F95E0
:100260000175088106C0C005010980A10185031937
:10027000012AB700150126B700950175108100C04D
:10028000050C0901A101850419012AA00215012606
:10029000A002950175108100C00660FF0961A101EF
:1002A0000962150026FF0095207508810209631573
:1002B0000026FF00952075089102C005010906A1DE
:1002C00001050719E029E715002501950875018149
:1002D000029501750881010507190029FF150026FF
:1002E000FF00950675088100050819012905950587
:1002F00075019102950175039101C009025B00032C
:100300000100A032090400000103010100092111CC
:100310000100012240000705810308000A090401C9
:100320000002030000000921110100012222000740
:1003300005820320000107050303200001090402D0
:10034000000103000000092111010001227B0007C8
:1003500005840320000A12010002000000080912AF
:1003600016B50100010200012C0354005200650083
:100370004B002000470054003400300050006C0057
:100380007500730020004700520049004E004900EC
:1003900055004D0000001A03640069006700690001
:1003A00074006100720068007900740068006D00DC
:1003B0000000040309040001010101010101010120
:1003C0000202020202020202020303030303030306
:1003D00003040404040404040505050505060606D3
:1003E0000606070707070708080808090909090A90
:1003F0000A0A0B0B0B0C0C0C0D0D0D0E0E0E0F0F35
:100400000F101011111112121313141415151616C2
:100410001717181819191A1A1B1B1C1D1D1E1E1F31
:100420002020212222232424252626272829292A80
:100430002B2C2D2D2E2F30313232333435363738A8
:10044000393A3B3C3D3E3F404142434445464748A4
:10045000494A4C4D4E4F50515354555658595A5B7A
:100460005D5E5F616264656668696B6C6D6F70721A
:10047000737577787A7B7D7E8082838587888A8C86
:100480008E8F91939596989A9C9EA0A2A3A5A7A9BA
:10049000ABADAFB1B3B5B7BABCBEC0C2C4C6C9CBB1
:1004A000CDCFD1D4D6D8DBDDDFE2E4E7E9EBEEF067
:1004B000F3F5F8FAFDFF0100165C14001A000800BD
:1004C0001500170001002B61040016000700090049
:1004D0000A000100E1001D001B00060019000500D4
:1004E0000100105091642A612C42000000000100BC
:1004F0000100010001000100010000001C001800C3
:100500000C00120033002D0001000B000D000E0046
:100510000F00130034000100050011001000360028
:10052000370038720100000000002C4228719078DA
:100530001150010000000000000000000000000059
:1005400000000100010001000100010001000100A4
:100550000100010001000100010001000100010093
:100560000100010001000100010001000100010083
:1005700001002A68010000000000010001000100E4
:100580000100010001000000010001000100010064
:100590000100010001000100010001000100010053
:1005A0000100010001000100010001000100010043
:1005B0000100000000000100287890710100010096
:1005C000000000000000000000000000000001002A
:1005D00035001E001F002000210022000100010044
:1005E00001000100010001000A08010001000100F2
:1005F00001000100190801000100010001004C0088
:100600000351000000000100010001000100010091
:1006100001000000230024002500260027002E00F2
:1006200001005000510052004F0001000100010084
:10063000F600B600B7002F003000310001000000C6
:10064000000003513B000100010001000000000018
:1006500000000000000000000000010001003A005E
:100660003B003C003D003E0001000100C95CCA5C4B
:10067000C35CC45CC25C01000100C55CC65CC75CB5
:10068000C85C010001000100010001000100000040
:100690000000010001000100010001000100000054
:1006A0003F00400041004200430044000100CB5C99
:1006B000CC5C01000100010001000100010001000B
:1006C0000100010001000100010000000000010024
:1006D0000100010001000100000000000000000016
:1006E00000000000000011241FBECFEFDAE0DEBFE3
:1006F000CDBF04B603FE27C0809107049091080483
:10070000A0910904B0910A048730904BA740B04BE8
:10071000D1F4109207041092080410920904109268
:100720000A0414BE84B7877F84BF0FB6F894A895D7
:1007300080916000886180936000109260000FBE1D
:10074000E0E0F8E3099512E0A0E0B1E0E0E6F1E6D0
:1007500002C005900D92A233B107D9F724E0A2E3BD
:10076000B2E001C01D92A730B207E1F70E947609FE
:100770000C94AE300C9400001F93CF93DF93CDB751
:10078000DEB767970FB6F894DEBF0FBECDBF4B8BB9
:100790005C8B6D8B7E8B8F8B611110921F0386E0BB
:1007A0009E01235F3F4FD901E82F1D92EA95E9F79B
:1007B00095E0FE017396D90101900D929A95E1F7AB
:1007C0009C894E895F897B897D879E876F87598B3E
:1007D000488BF901DE01179601900D928A95E1F799
:1007E000CE0107960E94371981113EC086E0FE01B6
:1007F0003796DE01119601900D928A95E1F7FF81FF
:10080000E8856A857B856115710531F0EF3F31F42C
:1008100081E0FF3F19F403C081E001C080E080FD6A
:1008200023C02091EB0230E0C9010196877099271F
:1008300040911C0350E08417950779F1F983EA830E
:100840007D836C8396E0929FD001939FB00D11241D
:10085000A451BD4FFE01319601900D929A95E1F79A
:100860008093EB020E94C11816E080911C039091C6
:10087000EB02891709F1189FC001112484519D4F83
:100880000E9437198823C1F080911C0390E00196E3
:100890008770992780931C03E8CF109226030E944B
:1008A0009A2B1092EB0210921C03E5EEF2E086E028
:1008B000DF011D928A95E9F767960FB6F894DEBFBF
:1008C0000FBECDBFDF91CF911F9108953F924F9200
:1008D0005F926F927F928F929F92AF92BF92CF92D0
:1008E000DF92EF92FF920F931F93CF93DF93CDB7D9
:1008F000DEB729970FB6F894DEBF0FBECDBFFC015F
:100900008081918123813481232B31F09F3F31F409
:1009100091E08F3F19F403C091E001C090E090FD99
:10092000A8C47F0185E0DE01119601900D928A95A1
:10093000E1F7F701228189819A81222349F00E94FF
:10094000BC2A182F682F89819A810E94242B03C00A
:100950000E94F82A182F69817A81812F0E94922A99
:100960008C01F7018281882309F4F2C09801225199
:100970003F452031310508F01DC18FEF93E00E9403
:10098000AA2E8111EFC0025137E5832E32E0932E5B
:10099000002379F08114F4E09F0609F4E3C0C40158
:1009A0000E94AA2E811101C001502FEF821A920AD3
:1009B000EFCF1E821F8218861986442443942AE0B2
:1009C000322E84010F5F1F4FC4010E94AA2E8E8316
:1009D0001F82882309F4C6C09FEF980F933060F4FC
:1009E0008F834E8232E0830E911CC8010E94AA2E92
:1009F0008887811102C0B6C048018E010A5F1F4F6F
:100A0000F80120812223E9F2213009F04CC08181D4
:100A1000813049F46801F2E0CF0ED11CF8018281E7
:100A20000E94B82C0AC0823051F46801F2E0CF0E67
:100A3000D11CF80182810E94142C860186C083306B
:100A400049F46801F2E0CF0ED11CF80182810E94C6
:100A5000B42BF3CF843019F00F5F1F4F76C0F8012D
:100A600022810E5F1F4F80E090E030E0205331097B
:100A70002A30310568F4389EA001399E500D1124AA
:100A8000C901840F951F0F5F1F4FF8012081EDCF23
:100A9000009709F45AC0EFE9FFE03197F1F700C081
:100AA00000000197F5CFE22FF0E0E256FE4F5490A0
:100AB000822F86958695869590E0FC01E257FE4F41
:100AC00064902770712C022E02C0759467940A946A
:100AD000E2F7F1E06F227724FC01E258FE4FA49088
:100AE000B12C022E02C0B594A7940A94E2F731E02B
:100AF000A322BB24FC01E259FE4FC490D12C02C0BA
:100B0000D594C7942A95E2F781E0C822DD246114C8
:100B1000710419F081EE0E94142CA114B10419F093
:100B200086EE0E94142C852D0E94B82CAB2819F05B
:100B300086EE0E94B42B672819F081EE0E94B42B38
:100B4000CD2819F08CE20E94B82C0F5F1F4F58CFB0
:100B500000313FE5130709F085C381E00E94532B64
:100B60000E94D81A80911D03877009F482C3F7018F
:100B70008281882309F47DC38091380282FD79C384
:100B800082E029960FB6F894DEBF0FBECDBFDF918D
:100B9000CF911F910F91FF90EF90DF90CF90BF907A
:100BA000AF909F908F907F906F905F904F903F900D
:100BB0000C9487180031FFE51F0711F481E005C090
:100BC00001312FE5120721F482E00E945F2BC8CF8C
:100BD0000631FCE51F0711F5882391F0809126036B
:100BE0008A7A91E009F490E090933402882311F01E
:100BF00065E301C069E28DED92E00E94D6290BC049
:100C000080913402882311F065E301C069E28DED23
:100C100092E00E94C9290E945A18A4CF882309F49F
:100C2000D0C08091260382720A3C9CE5190709F422
:100C30007EC0B0F5053CFCE51F0709F464C0D0F4A4
:100C4000033C3CE5130709F454C008F057C0023CCC
:100C5000ECE51E0709F082C090916B0381E08927C3
:100C600080936B0310921C0180916A0381608093D2
:100C70006A0378CF073CFCE51F0709F44EC008F46F
:100C800047C0083C3CE5130709F44CC0093C9CE50F
:100C9000190709F063C040E35DE26CE37DE255C0F3
:100CA0000F3CECE51E0709F455C098F40C3C2CE50C
:100CB000120709F446C008F43FC00D3C8CE5180744
:100CC00009F446C00E3C9CE5190709F047C085E0D1
:100CD00042C0063DECE51E0730F4013D1C4508F01E
:100CE00041CF82E138C00D352DE5120709F43ACF26
:100CF00035C042E75DE26BE77DE227C04BE75DE28E
:100D000062E77DE222C040E65DE269E67DE21DC069
:100D100049E65DE260E67DE218C048E45DE264E534
:100D20007DE213C044E55DE268E47DE20EC04CE381
:100D30005DE260E37DE209C04EEE5CE26CEF7CE2D6
:100D400004C04CEF5CE26EEE7CE20E94CB2D0ACF39
:100D500081E001C08DE00E94E31A04CF0A353DE531
:100D6000130751F150F401159CE51907A9F00E3D48
:100D70001C4539F50E94E317F5CE0B35FDE51F073D
:100D8000E9F00C351D45E9F48091380282FB882793
:100D900080F991E0892713C0109226030E949A2BB4
:100DA0003FEF84E39CE0315080409040E1F700C089
:100DB00000000E945129D6CE81E001C080E00E944F
:100DC000A418F701828100811181882349F0C801AC
:100DD0000E94BC2AD82E682FC8010E94242B04C070
:100DE000C8010E94F82AD82EB8018D2D0E94922A9F
:100DF0000E943E16B82E192F982EF7010281A58069
:100E0000A2949FE0A92280911D038770B9F000236E
:100E1000A9F0812F807F803421F080E28B0D883013
:100E200068F08091380282FD09C082E00E94871834
:100E300080911D038770DD24D3948111D12CC12EA4
:100E4000C2948FE0C8228C2D90E08C30910508F080
:100E5000D5C1FC01EA5AFF4F0C94772F812F807F78
:100E60001F70882311F01295107F0023B9F0112311
:100E700009F4B2C180E28B0D883010F0911006C0E9
:100E800080912603182B1093260305C080911F0321
:100E9000182B10931F030E945A189EC18B2D0E947D
:100EA000B42B112309F4AAC180E28B0D883080F1A4
:100EB000992071F1109580911F03182310931F033F
:100EC0002AC0812F807F1F70803211F01295107F11
:100ED0008B2D992021F0F1E09F16D9F149C0809126
:100EE000380282FF1BC0002369F0112339F0809182
:100EF0002603182B109326030E945A1880E00E94A4
:100F0000142C7CC180E00E94B42B112309F476C11B
:100F1000812F0E9453180E945A1870C1002381F03B
:100F200080912003AA2051F021E0A21207C0182BC3
:100F3000181709F463C11093200360C1812B10C0FE
:100F4000AA2021F031E0A31609F458C10E944D18DF
:100F500027C0002341F085E08A1508F44FC1812F96
:100F60000E94AA2B4BC194E09A1508F447C118C0FF
:100F7000002349F0AA2099F3F701858180FF2CC155
:100F80008F708583ECCFAA2059F0893309F033C1E3
:100F9000FFEF27EE33E0F15020403040E1F729C168
:100FA000812F0E94A32B2AC1812F8695869583705D
:100FB00019F0813061F022C1002321F08B2D912F97
:100FC000937002C080E090E00E94062A1DC10023B9
:100FD00021F08B2D912F937002C080E090E00E9451
:100FE000F02912C18B2D002319F00E94F52502C0B3
:100FF0000E943C250E94122507C1812F8370A9F50C
:10100000011100C14B2D429546954770440F440F86
:101010008B2D8F7090E09C01042E01C0220F0A944A
:10102000EAF7B4FE08C08FE090E001C0880F4A954F
:10103000EAF7809501C080E016951695137012307E
:1010400069F088F490912103113019F0822B8923E3
:1010500002C0922B892B0E946A2BD4C0822B9091C4
:1010600021038927F8CF822BF6CF002319F0812F97
:10107000817001C08695882309F4C4C04B2D429528
:1010800046954770440F440F8B2D8F7090E09C0164
:10109000042E01C0220F0A94EAF7B4FE08C08FE0C4
:1010A00090E001C0880F4A95EAF7809501C080E082
:1010B000169516951370123059F078F490917103CB
:1010C000113019F0822B892309C0922B892B06C07D
:1010D000822B90917103892701C0822B0E944F2B94
:1010E00091C01F70002339F0812F0E945F2B8B2D40
:1010F0000E94AA2B87C08B2D0E94A32B812F0E94B8
:10110000532B80C08B2D92EF991679F1991538F0F9
:10111000E0EF9E1659F0F1EF9F1611F159C023EF41
:10112000921651F134EF9316B9F052C0002379F0C2
:1011300084E08A1508F462C01F7181E090E001C06C
:10114000880F1A95EAF79091710389271FC095E0DF
:101150009A1508F453C0F0CF8091380282FF19C06D
:10116000002329F0812F8F7126C00023D9F3812F0E
:101170008F710E94532B42C0002339F01F7181E010
:1011800001C0880F1A95EAF701C080E00E944F2B3A
:1011900035C0002399F01F71812F0E945F2B809131
:1011A000380282FD07C0E8E01E9FC0011124836061
:1011B00080931D03812F0E945F2B20C081E00E943D
:1011C0008718F1E0FA15D0F482E00E94871816C063
:1011D000002321F0AA2031F28B2D91CEAA2039F2E2
:1011E000893349F42FEF37EE83E0215030408040BF
:1011F000E1F700C000008B2D0E94B42B88EF8C0D0E
:10120000843010F40E941C2ADD2099F180911D0386
:1012100080FD2FC0F70112828595859585950E94E6
:101220005F2BC7010E94660480911D0385958595FB
:10123000859529960FB6F894DEBF0FBECDBFDF911E
:10124000CF911F910F91FF90EF90DF90CF90BF90C3
:10125000AF909F908F907F906F905F904F903F9056
:101260000C94532B01319FE5190709F0B1CC82E0B2
:1012700075CC29960FB6F894DEBF0FBECDBFDF91B7
:10128000CF911F910F91FF90EF90DF90CF90BF9083
:10129000AF909F908F907F906F905F904F903F9016
:1012A0000895CF93811106C0662311F0C1E011C0EB
:1012B000C0E00FC0813031F4662311F0C3E009C0F3
:1012C000C2E007C0823079F4662311F0C5E001C0A6
:1012D000C4E08C2F94E00E94BC2A6C2F74E00E9422
:1012E000922A0E94B82C80E0CF910895CF93DF938B
:1012F000CDB7DEB7AA970FB6F894DEBF0FBECDBF4D
:1013000084B7877F84BF0FB6F894A895809160005A
:10131000886180936000109260000FBE90E080E8CA
:101320000FB6F89480936100909361000FBE85B76B
:10133000806885BF85B7806885BF88E594E1909314
:101340003302809332020E9415270E94BB278091AE
:10135000E20084608093E2007894809133038823D4
:10136000A1F01091E9001F709091EC00892F81701D
:1013700090FD80E8182B1092E9008091E80083FD31
:101380000E94FF1D1F701093E90082E084BD93E06E
:1013900095BD9AEF97BD80936E000E94B22D81118A
:1013A00002C00E94A32DA2E2B1E02CE231E0AD0127
:1013B00061E070E0FA018191AF01E82FE295EF70F2
:1013C000F0E011A18F705B0102C0AA0CBB1C8A95D2
:1013D000E2F7C5019A2D9095912391A392A1892BB3
:1013E00082A32417350731F74CE251E063E371E043
:1013F0008A01EE24E394F12CF80181918F01E82F0A
:10140000E295EF70F0E0D1A08F70570102C0AA0CF6
:10141000BB1C8A95E2F7C5019A2D90959D2191A359
:1014200092A1892B82A36017710731F701E010E0C8
:10143000FA018191AF01E82FE295EF70F0E0F1A0A1
:101440008F70580102C0AA0CBB1C8A95E2F7C50137
:101450009A2D90959F2191A392A1892B82A3641725
:10146000750731F761E070E08D91E82FE295EF703C
:10147000F0E041A18F706B0102C0CC0CDD1C8A959D
:10148000E2F7C6019C2D9095942391A392A1892BFC
:1014900082A32A173B0741F7E9E3F2E083E492E0F5
:1014A000A8E5B2E011921D928E179F07D9F786E446
:1014B00090E00E94842FAC01909336028093350215
:1014C00020E030E0FA01E20FF31F90E011929F5FFD
:1014D0009730E1F7295F3F4F2634310599F70E9495
:1014E000D817811102C00E94E31782E090E00E94A9
:1014F000AA2E80934D0284E090E00E94AA2E182F1D
:1015000082E290E00E94AA2E212F30E0382B309307
:101510003802209337020E949D140FEF11EE24E051
:10152000015010402040E1F700C000000E949D14CF
:101530008091580280FF08C06FEF7FEF80E090E05D
:101540000E94E62E0E94512983E090E00E94AA2E7C
:101550000E946A2B10924103EAE5F3E08AE693E0E9
:101560002FEF3FEF219331938E179F07D9F71092FA
:101570006202EBE7F2E08FEF9FEF8193919332E00D
:10158000EB38F307D1F70E94D817811104C00E94ED
:10159000E3170E94A92346E050E06CE170E08BE67F
:1015A00093E00E949A2E10926A0380916B038C7FC5
:1015B00011F40E94A92369E471E023E431E0A6E478
:1015C000B1E041E050E06A177B0769F18D91E82FA7
:1015D000E295EF70F0E011A18F705A0102C0AA0CE1
:1015E000BB1C8A95E2F7C5019A2D9095912391A392
:1015F00092A1892B82A3F90181919F01E82FE295A5
:10160000EF70F0E011A18F705A0102C0AA0CBB1C50
:101610008A95E2F7C5019A2D9095912391A392A105
:10162000892B82A3D0CF8FE891E00197F1F700C01A
:1016300000006CE472E043E451E006E411E0E9E408
:10164000F2E06E177F0759F1D8012D918D01822F9D
:1016500082958F7090E0DC0190968C9190E02F70D5
:1016600002C0959587952A95E2F78170DA019D91E0
:10167000AD01292F22952F7030E0D90190962C9141
:1016800030E09F7002C0359527959A95E2F720FFCC
:1016900002C092E001C090E0892B8193D2CF80916B
:1016A0004D028360846080934D028AE091E09093C4
:1016B00082038093810380913303853009F04CC00D
:1016C00000E112E180913303853009F03FC0809141
:1016D0003303843039F10E94970F10928503E8E1BB
:1016E000F0E090E4A92E0FB6F894A895E09360007E
:1016F0000FBEA092600083B7817F846083BF83B7F1
:10170000816083BF7894889583B78E7F83BF0FB63F
:10171000F894A89580916000886180936000109291
:1017200060000FBE80913203882309F4CBCF0E9462
:101730009D14E8E5F2E081918111CCC382E6C82EC8
:1017400082E0D82ECE16DF06B1F7BCCF109226036A
:101750000E949A2B0E941C2A0E949D1481110E94B3
:101760008829AEE4B2E0E8E5F2E000E010E0902F76
:10177000D1908D918D2509F4A3C0F12CEE24E39432
:101780002E2D282309F496C0F9A29AA3DE2081E029
:1017900009F480E08BA30E9494298160782F9DA397
:1017A0008CA349A15AA16BA18DA10E94BC03F80191
:1017B000E25BFD4F8081E826E082DD2089F087E052
:1017C000809FF001819FF00D1124E757FE4FEF0D30
:1017D000F11D80818F3F21F0282EDD24D39401C09C
:1017E000D12C0D2D10E0809162027801E80EF11CE1
:1017F000C7010997ACF188E090E07C01E01AF10A9A
:10180000B8016F5F7F4F6E597D4FA70183E692E06D
:101810000E94A530B801675F7F4F6E597D4FA701C9
:101820008BE692E00E94A530A701440F551FB80136
:10183000660F771F675E7F4F6E597D4F8BE792E093
:101840000E94A530B8016F5E7F4F6E597D4FA70192
:1018500083E792E00E94A53088E08D1980936202B0
:101860008091620290E0222D30E0D901AA0FBB1FC7
:10187000BD0161537E4F9D0120533E4F41E0480F13
:101880009D15A8F490E0FC01EE59FD4FDB015C9141
:101890005183D9015C915187218A880F991FFC01DE
:1018A000EE59FD4F128E118E91E0842FE7CF809379
:1018B00062021CC0F394EE0C67E0A62EFA1060CF13
:1018C0000F5F1F4F0A30110509F051CF8FEF8EA324
:1018D0008FA318A60E9494298160782F9AA789A7C0
:1018E0004EA15FA168A58AA50E94BC030E94970F24
:1018F00006E412E093E4E92E92E0F92E29E4C22EE8
:1019000022E0D22E33E4A32E31E0B32E46E4642E3F
:1019100041E0742E312C412C54E0852E912CD601BF
:101920005C90452D440F440FF30121913F01E22FBC
:10193000E295EF70F0E080A190E02F7002C09595E5
:1019400087952A95E2F781709927D5015D915D0110
:10195000E52FE295EF70F0E020A130E05F7002C06B
:10196000359527955A95E2F7B9016170772720FFE1
:1019700002C062E070E0862B972B542E582AF601A5
:1019800051926F01E52DEF70F0E0ED5CFE4F90811C
:10199000D8018C91890F8C93843054F0F7018081A9
:1019A0008F5F808360E0842D0E94510921E001C097
:1019B00020E0D8018C918D3F4CF4F701808181505B
:1019C000808361E0842D0E94510921E0852D837080
:1019D000D801833051F08C91082E000C990BB40182
:1019E0000E94632FF801808301C01C92322A439425
:1019F0000F5F1F4FBFEFEB1AFB0AE3E04E128FCFD2
:101A000031100E94882986E0E9E7F3E08E010F5F3C
:101A10001F4FD80101900D928A95E1F7F0907B035A
:101A2000E0907C03D0907D03C0907E0310927B03F6
:101A300010927C0310927D0310927E03F11003C07C
:101A4000EE2009F45DC020917703309178034FB701
:101A5000F8948091860390918703A0918803B091B8
:101A600089034FBF5C01A21AB30A950180917303E9
:101A7000882309F450C22333310508F441C08F3F55
:101A800019F08F5F80937303FF2061F00E94D525CA
:101A90001F1414F491E001C09FEF899F802D112441
:101AA00080937B03EE2061F00E94D5251E1414F470
:101AB00091E001C09FEF899F802D112480937C03CA
:101AC00030917B033323E1F020917C032223C1F08A
:101AD00045EB3403C0011124992319F090937B0343
:101AE00003C081E080937B0355EB2503C0011124E3
:101AF000992319F090937C0303C081E080937C03C9
:101B0000D11003C0CC2009F45CC020917503309142
:101B100076034FB7F8948091860390918703A09144
:101B20008803B09189034FBFFC01E21BF30B809146
:101B30007203882309F4F6C1E536F10508F441C0C3
:101B40008F3F19F08F5F80937203DD2061F00E9458
:101B5000B3251D1414F491E001C09FEF899F802DDF
:101B6000112480937D03CC2061F00E94B3251C14C6
:101B700014F491E001C09FEF899F802D1124809380
:101B80007E0330917D033323E1F020917E032223F5
:101B9000C1F045EB3403C0011124992319F090934F
:101BA0007D0303C081E080937D0355EB2503C001D5
:101BB0001124992319F090937E0303C081E0809350
:101BC0007E0380917B0381110BC080917C03811186
:101BD00007C080917D03811103C080917E03811134
:101BE0000E941225FB82EC82DD82CE8286E0F80123
:101BF000A9E7B3E001900D928A95E1F70E941C2AB3
:101C000090914C02891721F00E941C2A80934C026B
:101C100080913303843009F04ECD83E08093E90056
:101C20008091E80082FF47CD8091E80085FF21C0C8
:101C30000E94342781111BC080E2C82ED12C78016C
:101C400009C08091F100D7018D937D01B1E0CB1ADD
:101C5000D10869F08091E80085FDF3CF8091E8001C
:101C60008B778093E8000E943427882399F391E0D2
:101C700001C090E08091E8008B778093E800992381
:101C800009F419CDE9818E2F90E0FC013197E33101
:101C9000F10508F0F5C0EE59FF4F0C94772F1A822A
:101CA00089E058C08A81823009F42CC1833051F018
:101CB000813009F0E5C00E9488299B838C837D8355
:101CC0006E83E0C0FE013396CE010D96A8E5B2E02A
:101CD0002D912193E817F907D9F7D4C08A81823072
:101CE00009F0CEC06B817C818D819E810E947D2F09
:101CF00086E290E024C04C816B818A810E946C2A2C
:101D00009D8307C1ED80FE80FE24EF24FE248C819C
:101D1000CB809A81EEE0CE9E60011124FCE89F9F6B
:101D2000C00CD11C1124C80ED11CC80ED11C6F2DA3
:101D3000C60187960E94C82E6E2DC60188960E9405
:101D4000C82EA0C00E94382A9DC080E152C081E008
:101D50008A8389EA8B8396C0EA80FB80FE24EF2485
:101D6000FE24AC80B12C6801C701895A9D4F9601B1
:101D7000201B310B2A153B0508F084C029EAE21626
:101D800021E0F20630F40E94AA2ED60114968C931C
:101D900002C0F6011482FFEFEF1AFF0A2FEFC21AFA
:101DA000D20AE2CFEA80FB80FE24EF24FE24AC803E
:101DB000B12C6801C701895A9D4F9601201B310B38
:101DC0002A153B0508F05EC039EAE31631E0F30658
:101DD00028F4D60114966C910E94C82EBFEFEB1A1E
:101DE000FB0AEFEFCE1ADE0AE5CF0E94282A4AC08E
:101DF00084E08A8347C0EA80FB80FE24EF24FE242F
:101E0000AC80B12C6801C70187969601201B310B6D
:101E10002A153B05B8F5F0E3EF16F2E0FF0630F4C3
:101E20000E94AA2ED60114968C9302C0F601148249
:101E3000FFEFEF1AFF0A2FEFC21AD20AE4CFEA80AF
:101E4000FB80FE24EF24FE24AC80B12C6801C70186
:101E500087969601201B310B2A153B0598F430E339
:101E6000E31632E0F30628F4D60114966C910E9432
:101E7000C82EBFEFEB1AFB0AEFEFCE1ADE0AE7CF50
:101E80008FEF898380913303843009F014CC8091E3
:101E9000E9008F702091EC00922F917020FD90E866
:101EA000F92EF82A82E08093E9008091E80080FF13
:101EB0000CC040E050E060E270E0C8010E94C01D2C
:101EC0008091E8008E778093E8008F2D8F7080934B
:101ED000E900F1CB09BD19BD09B400FEFDCF809129
:101EE000D8008F7D8093D8008091E000826080933D
:101EF000E0008091E00081FDFCCF109226030E945B
:101F00009A2BE0CB86E290E00E94AA2E1B821C82D4
:101F10001D828E83B7CFFDE2AF16F1E0BF0608F455
:101F2000EFCDAFCDED32F14008F44BCE0BCE4F925A
:101F30005F926F927F928F929F92AF92BF92CF9259
:101F4000DF92EF92FF920F931F93CF93DF938091D5
:101F50008B0290918C02A0918D02B0918E022FB7CE
:101F6000F894C0908603D0908703E0908803F090A7
:101F700089032FBFC81AD90AEA0AFB0A0E948829D6
:101F80004B015C0160938B0270938C0280938D02F5
:101F900090938E02A0916202E2E6F2E08A2F90E036
:101FA0004FEF5FEF60E070E04C195D096E097F094B
:101FB000A91799F0218D328D2901612C712C4415BE
:101FC00055056605770510F4815004C02C0D3D1DA4
:101FD000328F218F9F5F3296EBCF80936202809188
:101FE0006B03982F937021F0182F1695169501C04A
:101FF00010E090911C019130E1F030F09230E1F16D
:10200000933009F444C043C41092190180923D03F7
:1020100090923E03A0923F03B092400389E2E2E631
:10202000F2E0A1E4B3E001900D928A95E1F781E03E
:102030002BC09091170119130CC0837090E0409150
:10204000160150E021E08417950709F420E0822F63
:1020500001C081E0817080931B0180917003909199
:102060001A01981709F440C080931A0140E060E01B
:1020700080E00E94A52338C01093170183708093DD
:1020800016010E940A2D83E080931C0100C48091F8
:102090006A03882351F046E050E06CE170E08BE683
:1020A00093E00E94B82E10926A0340913D03509134
:1020B0003E0360913F03709140032FB7F8948091E5
:1020C000860390918703A0918803B09189032FBF65
:1020D000841B950BA60BB70B4097A105B10508F41F
:1020E000D6C310921C01D3C3812F90E08A32910590
:1020F00080F0809119018F5F8093190182E08093B5
:102100001C0180911B018111C2C3112309F4BBCFB3
:10211000BEC3FC01EB58FF4F0C94772F80911B013D
:10212000882329F040E060E080E00E94A52380E061
:10213000A6C3C09119018C2F880FC80FCC0FD6E011
:10214000DC0FDF3108F0DEE160916C0370916D030C
:1021500080916E030E948224062FF72EE82ECD1761
:1021600008F004C2EC2FF0E0DF01A55FBD4F8C91B9
:1021700090911A01982331F02E2D402F6F2DCF0111
:102180000E94A723CF5FEBCFC09119018C2F880F3E
:10219000C80FCC0FD6E0DC0FDF3108F0DEE1F090A5
:1021A0006D0300916E03E0906C03B701802F0E94D5
:1021B0008224D62EC72EB82E60916F036E0D7F2D10
:1021C000802F0E948224062FF72EE82ECD1708F0CC
:1021D000CDC18C2F90E0FC01E55FFD4F3081209157
:1021E0001A01232359F030FF04C02E2D402F6F2DEC
:1021F00003C02B2D4D2D6C2D0E94A723CF5FE6CF62
:10220000C09119018C2F880FC80FCC0FD6E0DC0FBE
:10221000DF3108F0DEE1D0906D03C0906E032091B5
:102220006F0300E4029F012D1124CD1708F09EC119
:10223000EC2EF12CF701E55FFD4F908180911A01A2
:102240008923B9F0F701EE0FFF1FE053FE4F8081A5
:1022500082958F7060916C03809F600D11247D2D9D
:102260008C2D0E948224462F282F672FC7010E94A1
:10227000A723CF5FDACFC09119018C2F880FC80F29
:10228000CC0FD6E0DC0FDF3108F0DEE1D0906D033B
:10229000C0906E0320916F0300E4029F012D112472
:1022A000CD1708F063C1EC2EF12CF701E55FFD4F6F
:1022B000908180911A018923D9F0F701EE0FFF1F59
:1022C000E153FE4F6081069FB001112445E07595F2
:1022D00067954A95E1F780916C03680F7D2D8C2DF1
:1022E0000E948224462F282F672FC7010E94A72310
:1022F000CF5FD6CFC09119018C2F880FC80FCC0F9C
:10230000D6E0DC0FDF3108F0DEE1F0906C030091E5
:102310006D03E0906E0360916F0366956695669518
:1023200080913D0390913E030E9478240E94C42333
:10233000805887FD8195880F282F3E2D239F212DC2
:102340001124822F6F2D702F0E948224062FF72ECA
:10235000E82ECD1708F00AC1EC2FF0E0DF01A55FF1
:10236000BD4F8C9190911A01982331F02E2D402F62
:102370006F2DCF010E94A723CF5FEBCF8EEA92E2B1
:1023800002C082E892E20E94391C79C287E893E297
:102390001DC088E693E21AC08DE493E21CC081E37D
:1023A00093E219C080E892E2EECF87E792E2EBCFAA
:1023B0008EE692E2E8CF83E592E2E5CF84E492E212
:1023C0000AC08FE494E202C080E293E20E94641D9E
:1023D00056C28CE093E20E94E81C51C286E192E270
:1023E00005C084EE91E202C086EA91E20E94871C59
:1023F00046C280911B0181111EC060916F0320E1D4
:10240000620F08F46FEF80913D0390913E030E94AC
:1024100078246AE070E00E944F2F892B09F087CE64
:102420000E948A2E6EE170E00E94632F60911A0173
:102430000E94F82D7CCEC09119018C2F880FC80FF7
:10244000CC0F06E00C0F0F3108F00EE1D0E0E02ECB
:10245000F12CCE15DF050CF041C060911A01CE01C0
:102460000E94F82D2196F5CF80911B0181111EC08D
:1024700060916F0320E1620F08F46FEF80913D03DC
:1024800090913E030E94782465E070E00E944F2FF7
:10249000892B09F04CCE0E948A2E6EE170E00E94DA
:1024A000632F60911A010E94D12D41CEC091190174
:1024B0008C2F880FC80FCC0F06E00C0F0F3108F0DF
:1024C0000EE1D0E0E02EF12CCE15DF053CF460915A
:1024D0001A01CE010E94D12D2196F6CF81E00E3156
:1024E00008F4CDC124CEC09119018C2F880FC80FDC
:1024F000CC0FD6E0DC0FDF3108F0DEE1F0906D03A9
:1025000000916E03E0906C0360916F036695669591
:10251000669580913D0390913E030E9478240E942D
:10252000C423805887FD8195880F682F2CE0629F17
:10253000612D11246E0D7F2D802F0E948224062F85
:10254000F72EE82ECD1790F4EC2FF0E0DF01A55F19
:10255000BD4F8C9190911A01982331F02E2D402F70
:102560006F2DCF010E94A723CF5FECCF81E0DE313A
:1025700008F485C1DCCD85EE93E205CF85E991E2D3
:1025800002CF40918F025091900260919102709120
:10259000920280913D0390913E03A0913F03B09140
:1025A000400384179507A607B70708F4C0CD0E941B
:1025B0000924082F0E9409249EE1891BF0F7890F46
:1025C000C82FD0E0FE01E55FFD4F90911A01808198
:1025D000892309F453C101FF04C020E040E060E01A
:1025E00013C00E940924082F0E9409248695782F81
:1025F0002FE7720F08F47FEF602F80916E030E9427
:102600008224462F282F672FCE010E94A7232091D6
:102610006F0330E1230F08F42FEF60E1822F90E089
:102620000E947824BC0184EF91E00E944F2F80919A
:102630003D0390913E03A0913F03B0914003860F6C
:10264000971FA11DB11D80938F0290939002A093BC
:102650009102B09392026BCD4091D9025091DA026F
:102660006091DB027091DC0280913D0390913E030A
:10267000A0913F03B091400384179507A607B707C1
:1026800008F455CD60916C0370916D0380916E03D9
:102690000E948224062F772E682EC3E9D2E099E8A3
:1026A000E92E91E0F92E29EDA22E22E0B22E47016B
:1026B0006E01512CF6018081F401882329F080817C
:1026C000262D402F672D04C0808120E040E060E08F
:1026D00090E00E94A723F601818181936F015394BA
:1026E000FFEF8F1A9F0A22E05212E4CF47016E01DA
:1026F00086E0582EF6018681F401882329F0868130
:10270000262D402F672D04C0868120E040E060E048
:1027100090E00E94A723F601858186835A94F1E018
:10272000CF1AD10821E0821A910833E05312E2CF88
:102730008B81F701882329F08381262D402F672D77
:1027400004C0838120E040E060E090E00E94A72385
:102750008A81F701882329F08281262D402F672D59
:1027600004C0828120E040E060E090E00E94A72366
:102770000E940924837091E009F090E09A839B8382
:102780002796F7E0EF0EF11CAC16BD0609F08FCFCF
:1027900020916F0330E1230F08F42FEF60E1822FC7
:1027A00090E00E947824BC0188EB9BE00E944F2FB0
:1027B00080913D0390913E03A0913F03B09140036F
:1027C000860F971FA11DB11D8093D9029093DA0245
:1027D000A093DB02B093DC02AACC8EE891E202C0A7
:1027E00088E891E20E94C41B4AC08091410321E025
:1027F000382F321B08F430E0832F6FE671E23BC0C4
:102800006FE671E237C08091410321E0382F321B1F
:1028100008F430E0832F67E371E22DC067E371E2D3
:1028200029C08091410321E0382F321B08F430E0A9
:10283000832F65E071E21FC065E071E21BC08091EB
:10284000410321E0382F321B08F430E0832F6DEE76
:1028500070E211C06DEE70E20DC08091410321E085
:10286000382F321B08F430E0832F67ED70E203C08D
:1028700067ED70E280E00E94FC1A01C081E0909157
:1028800019019F5F90931901882309F437CCDF91D8
:10289000CF911F910F91FF90EF90DF90CF90BF905D
:1028A000AF909F908F907F906F905F904F90089522
:1028B00080E008959091370292FF0DC0282F287173
:1028C000283019F4877F846006C0282F24712430B3
:1028D00011F48B7F886093FF0DC0282F2871283159
:1028E00019F4877E846106C0282F2471243111F4E5
:1028F0008B7E88612091380220FF0DC0382F3871FF
:10290000383019F4877F816006C0382F317131303B
:1029100011F48E7F886021FF0DC0282F2871283187
:1029200019F4877E816106C0282F2171213111F4AD
:102930008E7E886194FD877E08952F923F924F92FC
:102940005F926F927F928F929F92AF92BF92CF923F
:10295000DF92EF92FF920F931F93CF93DF9300D0FC
:102960001F92CDB7DEB709E312E09EE3692E92E035
:10297000792ED80122E2E22E21E0F22E212CAA2487
:10298000A394B12C4D013C901C92F70181917F01E1
:10299000E82FE295EF702E2F30E03B832A83F90178
:1029A00021A18F70A50102C0440F551F8A95E2F73F
:1029B000CA01242B21A322A140954983242322A3C9
:1029C00050EA5A95F1F76CE271E06B0120E030E0DB
:1029D000F60151906F01452D42954F7050E0FA017C
:1029E00040A14C9050E0F52DFF7002C055954795E1
:1029F000FA95E2F740FD07C04A2D022E01C0440FB0
:102A00000A94EAF701C040E0442A4C922F5F3F4FFE
:102A100027303105E9F6EA81FB8191A1F9819F23F5
:102A2000EA81FB8191A392A1892B82A3119681E077
:102A3000F4019081931101C080E0282A6A167B0678
:102A400009F0A0CF40E050E0EE24E394F12C83E4C1
:102A5000882E82E0982EDB018D91BD01E82FE29552
:102A6000EF70F0E021A18F70D70102C0AA0FBB1F49
:102A70008A95E2F7CD012A2B21A322A1A095A98353
:102A80002A2322A3B0EABA95F1F79701042E01C0D8
:102A9000220F0A94EAF7322E522E50942EE332E09F
:102AA0003B832A83A2E2CA2EA1E0DA2E612CAA80FF
:102AB000BB80D5017C90D6014D906D01242D2295CF
:102AC0002F7030E0D90190962C9130E0B42DBF707A
:102AD00002C035952795BA95E2F720FD04C0272D51
:102AE0002329D50104C0272D2521AA81BB812C9340
:102AF0002A813B812F5F3F4F3B832A83D5012C9155
:102B0000721611F0662463942A813B818216930623
:102B100071F691A13981392331A392A1892B82A326
:102B200026284F5F5F4F4730510509F094CF409101
:102B300025034983442309F43FC00E94942920912E
:102B4000230330912403DC01A21BB30B9D0190935E
:102B5000240380932303AF3FB10509F020F4AB2B8E
:102B600009F471C002C02FEF30E0109225031092DB
:102B70002203E0913502F0913602BF016A5B7F4F7C
:102B800090E030E0AF01495F5F4F8081882341F0E2
:102B9000281718F01082998103C0821B8083398125
:102BA0003196E417F50789F76E177F0759F73093C9
:102BB00025039093220347C02220E9F10E94942923
:102BC00090932403809323038091350290913602E1
:102BD00080902503A8E5B2E0BC016A5B7F4FEE243C
:102BE000E394F12C32E3B32EF80131918F012C9153
:102BF000932E9226FC0140E050E06701042E01C0B4
:102C0000CC0C0A94EAF7A92CAC2039F0A080A110D2
:102C100004C0B0822C258824839431964F5F5F4F87
:102C20004730510551F707962D9368177907E1F65C
:102C3000809225030CC080E090912203992339F003
:102C40008111C2CFBBCF2110BFCF81E0F5CF822D44
:102C50000F900F900F90DF91CF911F910F91FF90E8
:102C6000EF90DF90CF90BF90AF909F908F907F902C
:102C70006F905F904F903F902F900895CF93DF9388
:102C80008238910569F1B0F48133910509F46FC080
:102C900048F48932910509F465C08A32910509F436
:102CA0006BC08AC08533910509F457C089339105FB
:102CB000B9F082C0833E910571F138F4803E9105F0
:102CC000B1F0823E910511F177C0863E9105B9F1D0
:102CD000873E9105C9F1843E910509F06DC024C07D
:102CE0002091370220FD53C021FD51C065C0809165
:102CF000370280FD46C08091380280FF48C0809135
:102D0000370284FD50C183EE90E04FC180913702BD
:102D100082FF3AC0F4CF8091370282FD35C08091A6
:102D2000380280FD34C0EBCF8091380281FF35C07E
:102D30008091370284FD37C187EE90E036C18091E3
:102D4000370283FF27C0F4CF8091370283FD22C072
:102D50008091380281FD21C0EBCF8091370285FD43
:102D60001FC021C08091370285FD1DC019C0809110
:102D7000370286FD1BC01DC08091370286FD19C039
:102D800015C089E390E011C182EE90E00EC180EEA3
:102D900090E00BC186EE90E008C184EE90E005C1A2
:102DA00089E290E002C185E390E0FFC08AE290E012
:102DB000FCC081E390E0F9C0811531E5930708F08C
:102DC00069C0811540E59407F0F09C0174E03695E8
:102DD00027957A95E1F7922F9370482F437021E061
:102DE00030E002C0220F331F4A95E2F73C68392BCE
:102DF000982F9F709695969540E2949FC00111245C
:102E0000822B932BD2C0883E910568F5803E9105B8
:102E100008F0CBC0883A9105B8F4853A910548F09E
:102E2000855AE82FF0E0E75BFE4F808190E09064E8
:102E3000BCC08130910509F4B3C008F4B4C084303B
:102E4000910508F4B0C0B1C08F3B910508F0ABC04C
:102E5000885AE82FF0E0EE0FFF1FE45BFE4F808101
:102E600091819464A2C0811520E2920758F48115E3
:102E700031E0930708F099C0803F910508F493C0B2
:102E8000906593C0811540E4940708F48CC09F704E
:102E9000906A8BC0811525E5920708F042C0811524
:102EA00034E5930728F0982F8827846F906A7DC0B7
:102EB000811543E59407B0F09C012370332741E06E
:102EC00050E002C0440F551F2A95E2F7282F26959F
:102ED000269580E2289F90011124CA01822B932B12
:102EE0009A6863C0811522E5920728F4982F8827F5
:102EF000816F906A5AC09C012370332741E050E0F3
:102F000002C0440F551F2A95E2F7282F26952695D3
:102F100080E2289F90011124CA01822B932B9C6888
:102F200044C0EC01811539E59307A8F48115984553
:102F300028F09C2F8827806F906A37C0C11586E5DE
:102F4000D80788F58C2F0E945A148F7190E0982F23
:102F5000882790622AC081152AE5920790F48C2F69
:102F60008F700E945A1494E0D695C7959A95E1F710
:102F7000CF70D0E0DC2FCC27D0699E01282BC9016F
:102F800014C090568115904270F48D2F8F710E945D
:102F90005A14282F2F71CE0199279062922B05C0C9
:102FA00081E090E002C080E090E0DF91CF91089551
:102FB00080E090E00E94B22E893E9E4F11F40C9466
:102FC000B22D80E0089569EE7EEF80E090E00E94EF
:102FD000E62E60E082E090E00E94C82E60E083E090
:102FE00090E00E94C82E1092210360E084E090E0FF
:102FF0000E94C82E60E082E290E00E94C82E60E04D
:1030000085E090E00E94C82E60E086E090E00E949B
:10301000C82E6FEF87E090E00E94C82E40E050E09D
:10302000BA0188E090E00E94DA2E60E08DE090E046
:103030000E94C82E40E050E0BA0188E190E00E9472
:10304000DA2E60E087E190E00E94C82E40E050E078
:10305000BA018CE190E00E94DA2E60E070E080E23C
:1030600090E00E94E62E40E050E0BA0188E190E056
:103070000E94DA2E80E00E94852D0E94A32D40E060
:1030800050E0BA018FE090E00E94DA2E40E050E07C
:10309000BA0183E190E00C94DA2E80912003811133
:1030A00010922003089580959091260389238093A0
:1030B000260308959091260380911F03892B209168
:1030C0001E03982F922B9093DD028091200388237A
:1030D00089F0892B8093DD02EFEDF2E097E080E04C
:1030E000915029F021912223D9F38F5FF9CF8111DB
:1030F0000E944D18E0918103F0918203309731F0E6
:103100000280F381E02D8DED92E0099408952091E5
:103110001D038095822380931D03982F977099F447
:1031200030E0482F082E000C550B2417350759F0B6
:103130009091380292FD07C08595859585950E94EE
:10314000532B10921D030895CF93C0913802C2FBF8
:10315000992790F9981799F080FBC2F9C09338022B
:103160006091370284E090E00E94C82E6C2F82E2CA
:1031700090E00E94C82E82E0CF910C948718CF91E6
:10318000089580911C039091EB02891719F08F5FCD
:103190008770FBCF08950F931F93CF93DF93809198
:1031A000EA0282958F7009F05DC08091E702882362
:1031B00009F458C080911C031091EB026091E50264
:1031C0007091E602C091E802D091E90291E06F3F70
:1031D00009F090E0292F06E0811709F443C02097F9
:1031E00021F07F3F21F030E003C031E001C0322FF9
:1031F00090E030FD34C0089FF001099FF00D1124CC
:10320000DF01A451BD4F11963C911197371327C090
:103210003C91361324C012963C91129731111FC075
:1032200013964D915C9114974C1B5D0B483C5105D6
:10323000B0F48091EA028F7080618093EA02EF50CF
:10324000FD4F80818F708061808385EE92E00E94C7
:103250006604DF91CF911F910F910C94C1180196D4
:103260008770BACFDF91CF911F910F9108959F92F0
:10327000AF92BF92CF92DF92EF92FF920F931F9384
:10328000CF93DF93CDB7DEB761970FB6F894DEBF6B
:103290000FBECDBF8C0185E0F801DE011D960190C7
:1032A0000D928A95E1F7F801E2809091E502609134
:1032B000E6024091E8025091E9024115510531F0D2
:1032C0006F3F31F481E09F3F19F403C081E001C0FA
:1032D00080E0F82FF1709F2E80FD1AC1F801308137
:1032E0002181C380D48085EEA82E82E0B82EF09094
:1032F000E702F601E41BF50BFF2009F4C6C080913C
:10330000EA02E83CF10508F091C0482F407F09F03F
:1033100050C0621311C093130FC0FE2CE1100CC0FB
:103320008F7080618093EA02C5010E9466048091DB
:10333000EA02F801858329C1CD2831F02F3F31F40D
:1033400081E03F3F19F403C081E001C080E080FDCF
:1033500003C081E08E2502C080E090E0F82FF1707C
:10336000FF2E80FF1CC080911C034091EB0256E0B1
:10337000841709F4E8C090E0589FF001599FF00DC0
:103380001124E451FD4F6181261306C0608163134F
:1033900003C06281E61203C001968770E9CFFE2C5C
:1033A000EE2009F4F2C08091EA0281608093EA0283
:1033B00049C0621306C0931304C0E11002C0F801B3
:1033C00086C0C8010E946E2B882351F1EE2041F186
:1033D0002091EA02822F82958F7090E0029774F01C
:1033E0008091E5029091E60298878F831986DB86AB
:1033F000CA862C87CE0107960E94660486E0F801F3
:10340000A5EEB2E001900D928A95E1F70E94CB18EB
:103410000AC06217C9F0C8010E946E2B81111EC03C
:10342000C8010E946604FF24F394AFC0482F407F78
:1034300081F785EE92E00E94660486E0F501119224
:103440008A95E9F7F12CA1C09313E5CFE110E3CF02
:10345000F8018583C8010E94660454C0EE2001F380
:103460002091EA02822F82958F7090E0029734F2C9
:103470008091E5029091E6029A8389831B82DD8226
:10348000CC822E83CE010196B7CFE83CF105D0F572
:10349000FE2CEE2029F2621327C0931325C0209141
:1034A000EA0220FD18C0822F82958F70482F50E0CD
:1034B0004115510581F0F80125834F30510541F048
:1034C0008F5F982F9295907F822F8F70892B8583A5
:1034D000C8010E94660486E0F801A5EEB2E0019002
:1034E0000D928A95E1F751C0C8010E946E2B81119F
:1034F00085CF8091EA0281608093EA02C8010E9430
:10350000660443C086E0F50111928A95E9F73DC053
:10351000EE2009F485CFC8010E946E2BF82E882377
:1035200009F47ECF86E0F801A5EEB2E001900D929D
:103530008A95E1F78091E5029091E6020E94EB2ADC
:103540000E94CB1822C03D872E878D859E850E94C4
:10355000EB2A292F22952F70223028F49F7039F002
:10356000811105C00BC0243028F49F7049F4805E9F
:10357000883020F0C8010E9466049F2CF92C05C0F9
:10358000F8019581907F99F7F9CF8F2D61960FB64D
:10359000F894DEBF0FBECDBFDF91CF911F910F9189
:1035A000FF90EF90DF90CF90BF90AF909F900895E5
:1035B00080917103982F9670963011F4886001C045
:1035C000877F0C944F2B90916B039370A1F0811126
:1035D00002C0946007C08A3210F0946A03C0880F5A
:1035E000880F982B90936B0310921C0180916A03B3
:1035F000816080936A0308952F923F924F925F9269
:103600006F927F928F929F92AF92BF92CF92DF92F2
:10361000EF92FF920F931F93CF93DF93CDB7DEB757
:1036200027970FB6F894DEBF0FBECDBF282E4B01F3
:1036300020911901822F880F280F220F2E83122F1D
:103640001A5F1F3108F01EE13091410339839E81DA
:10365000911708F07CC08E81682E712CF301E55F14
:10366000FD4F908180911A01892309F46CC030903C
:103670006C0340906D03522C1F82C301880F991F69
:10368000DC01A153BE4FBB83AA83C301880F991FDE
:10369000FC01E053FE4FFD83EC83F9815F1608F0D7
:1036A00040C0E52CF12CAA81BB81CC90D12CF70134
:1036B000EF5BFC4F8181C81AD108AC81BD81AC9011
:1036C000B12C8185A81AB108CC9C9001CD9C300DFD
:1036D000300D1124AA9CC001AB9C900D900D1124BB
:1036E000820F931F0E941E24082F60916F0321E018
:1036F000620F08F46FEFF701EE0FFF1FEF5BFC4F57
:10370000818D928D0E9478247C019501A601632D04
:10371000742D8F81F4010995362E472E8F83539493
:10372000BCCF20916E038F81382F329F312D112411
:10373000832F632D742D0E948224462F282F672FFC
:10374000C3010E94A7238E818F5F8E8380CF81E08B
:103750001E3108F080E027960FB6F894DEBF0FBE4A
:10376000CDBFDF91CF911F910F91FF90EF90DF9030
:10377000CF90BF90AF909F908F907F906F905F9011
:103780004F903F902F900895CF92DF92EF92FF924B
:103790000F931F93CF93DF938C01C09119018C2F4E
:1037A000880FC80FCC0FD6E0DC0FDF3108F0DEE168
:1037B00020916F0331E0230F08F42FEF30E040E059
:1037C00050E06FEF7FEF80E090E00E94EC2E7901F7
:1037D000CD1708F041C0CC2ED12CF601E55FFD4F8E
:1037E000908180911A018923A9F190914103915010
:1037F00097FD15C0492F092E000C550BFA01EF5B00
:10380000FC4F8189C813F3CF440F551FFA01EF5BBA
:10381000FC4F218D328D2E153F0548F701C09701D1
:1038200060916F0341E0640F08F46FEFC9010E94DB
:103830007824AC0160916C0370916D0380916E03EC
:10384000F80109950E948224462F282F672FC60170
:103850000E94A723CF5FBCCF81E0DE3108F080E07B
:10386000DF91CF911F910F91FF90EF90DF90CF905C
:103870000895DF92EF92FF920F931F93CF93DF9300
:103880008C01C09119018C2F880FC80FCC0FD6E086
:10389000DC0FDF3108F0DEE160916F03669566951D
:1038A00021E0620F08F46FEF80913D0390913E0399
:1038B0000E947824D82ECD17F0F4EC2EF12CF701CD
:1038C000E55FFD4F908180911A01892391F060910D
:1038D0006C0370916D0380916E032D2D4C2FF801B8
:1038E00009950E948224462F282F672FC7010E9426
:1038F000A723CF5FE0CF81E0DE3108F080E0DF91E9
:10390000CF911F910F91FF90EF90DF9008959F92BC
:10391000AF92BF92CF92DF92EF92FF920F931F93DD
:10392000CF93DF936C01C09119018C2F880FC80FC2
:10393000CC0FD6E0DC0FDF3108F0DEE160916F03E1
:103940006695669580913D0390913E030E94782490
:10395000182F80E4810F0E94C42390E8F92EF80EFE
:10396000812F0E94C42320E8922E980ECD1700F5D7
:10397000AC2EB12CF501E55FFD4F908180911A01CD
:103980008923A1F060916C0370916D0380916E03A7
:10399000E12E0C2F292D4F2DF60109950E9482242E
:1039A000462F282F672FC5010E94A723CF5FDECFA8
:1039B00081E0DE3108F080E0DF91CF911F910F911F
:1039C000FF90EF90DF90CF90BF90AF909F900895C1
:1039D0006F927F928F929F92AF92BF92CF92DF921F
:1039E000EF920F931F93CF93DF935C01C091190166
:1039F0008C2F880FC80FCC0FD6E0DC0FDF3108F01A
:103A0000DEE160916F03669580913D0390913E03E6
:103A10000E947824182FCD1708F044C06C2E712C0A
:103A2000F301E55FFD4F908180911A018923C1F177
:103A3000F301EE0FFF1FE153FE4FC080D12C80E752
:103A4000C81AD108F301EE0FFF1FE053FE4F80802C
:103A5000912CE0E28E1A9108CC9C9001CD9C300D07
:103A6000300D1124889CC001899C900D900D11246B
:103A7000820F931F0E941E24082F60916C03709187
:103A80006D0380916E03E12E9401A601F501099565
:103A90000E948224462F282F672FC3010E94A7234C
:103AA000CF5FB9CF81E0DE3108F080E0DF91CF91C8
:103AB0001F910F91EF90DF90CF90BF90AF909F90AC
:103AC0008F907F906F900895CF92DF92EF92FF9248
:103AD0000F931F93CF93DF936C01C09119018C2F2B
:103AE000880FC80FCC0FD6E0DC0FDF3108F0DEE125
:103AF00060916F03669580913D0390913E030E9413
:103B00007824182FCD1778F5EC2EF12CF701E55F0E
:103B1000FD4F908180911A01892319F1F701EE0F71
:103B2000FF1FE053FE4F208130E020523109F701A2
:103B3000EE0FFF1FE153FE4F408150E04057510907
:103B400060916C0370916D0380916E03012FF601FB
:103B500009950E948224462F282F672FC7010E94B3
:103B6000A723CF5FCFCF81E0DE3108F080E0DF9187
:103B7000CF911F910F91FF90EF90DF90CF9008951C
:103B8000EF92FF920F931F93CF93DF937C018B01F2
:103B90000E943427811119C0E70101151105A1F018
:103BA0008091E80085FD0AC08091E8008E778093BF
:103BB000E8000E943427882381F307C0899180930D
:103BC000F10001501109E9CF80E0DF91CF911F9101
:103BD0000F91FF90EF90089590916B03937071F0A7
:103BE00080936C0360936D03473408F046E4409380
:103BF0006E0380916A03816080936A0308951F9326
:103C0000CF93DF93CDB7DEB7AA970FB6F894DEBF98
:103C10000FBECDBFE5E3F3E08DE393E02091F1002B
:103C200021938E179F07D1F780913603833009F4D3
:103C300063C030F4813071F0823009F49FC0B6C0A7
:103C40008A3009F48BC08B3009F46EC0893009F0DA
:103C5000ADC020C080913503813A09F0A7C08091A2
:103C6000E800877F8093E8008091390390913A03C0
:103C7000892B21F468E089E293E003C060E080E0F2
:103C800090E070E00E94F3288091E8008B778093A9
:103C9000E8008CC080913503813209F087C08091A3
:103CA000390390913A03009719F0029709F07EC00A
:103CB0008091E800877F8093E8008091E80082FD92
:103CC00005C0809133038111F8CF70C02091F300BB
:103CD0008091F20090E0922B029731F48091F100F4
:103CE000813011F0863021F48091F1008093280317
:103CF0008091E8008B7756C080913503813A09F0B6
:103D000055C08091390390913A03892B09F04EC038
:103D10008091E800877F8093E8008091E80080FF31
:103D2000FCCF8091180139C0809135038132F1F5C3
:103D30008091390390913A03892BC1F58091E80075
:103D4000877F8093E8000E946727809137038093E4
:103D50001801109226030E949A2B28C080913503E7
:103D6000813221F58091E800877F8093E8000E94EE
:103D70006727809138038093270318C0809135030B
:103D8000813AA1F48091E800877F8093E8008091D8
:103D9000E80080FFFCCF809127038093F1008091A1
:103DA000E8008E778093E8000E9467278091E80002
:103DB00083FFDFC18091350390913603492F50E096
:103DC0004A30510508F0D5C1FA01E156FF4F0C9475
:103DD000772F803821F0823809F0CBC108C080915C
:103DE000310390913203992389F082600FC0809152
:103DF00039038F70873008F0BCC18093E90080914F
:103E0000EB0085FB882780F91092E9009091E8008B
:103E1000977F9093E8008093F1001092F10070C1B9
:103E2000282F2D7F09F0A5C1882319F0823061F079
:103E3000A0C180913703813009F09BC1933009F014
:103E400080E0809332032EC08091370381112AC015
:103E5000809139038F702FEF280F263008F089C129
:103E60008093E9002091EB0020FF1CC0933021F4E7
:103E70008091EB00806214C09091EB009061909370
:103E8000EB0021E030E0A90102C0440F551F8A95E4
:103E9000E2F74093EA001092EA008091EB0088601C
:103EA0008093EB001092E9008091E800877F809377
:103EB000E8000E9467275DC181115BC11091370343
:103EC0001F778091E3008078812B8093E3008091BD
:103ED000E800877F8093E8000E9467278091E800D0
:103EE00080FFFCCF8091E30080688093E300111194
:103EF00002C082E001C083E0809333033AC180585E
:103F0000823008F036C120913703309138032C3DC0
:103F100053E0350779F583E08A838AE289834FB7D6
:103F2000F894DE01139620E03EE051E2E32FF0E04A
:103F300050935700E49120FF03C0E295EF703F5F7C
:103F4000EF708E2F90E0EA3010F0C79601C0C09657
:103F50008D939D932F5F243149F74FBF8091E800E7
:103F6000877F8093E8006AE270E0CE0101960E94AC
:103F7000F328B4C08091390390913A03432F552719
:103F800043305105A9F068F44130510509F400C1EE
:103F90004230510509F0EDC08BE590E0EBEFF2E027
:103FA0004BC04132510529F14232510589F1E1C03E
:103FB000C901992781309105A1F058F0029709F0C5
:103FC000D8C0E8E6F3E0E4918E2F90E0E8E6F3E075
:103FD00030C0E2EBF3E0E4918E2F90E0E2EBF3E00F
:103FE00028C0E6E9F3E0E4918E2F90E0E6E9F3E003
:103FF00020C08330910508F0BCC0880F991FFC01D8
:10400000ED57FE4F0190F081E02D89E090E014C063
:104010008330910508F0ADC0FC01EE0FFF1FE3589F
:10402000FE4F0190F081E02DDC01A658BE4F8C912F
:1040300090E0009709F49DC02091E800277F20932D
:10404000E80020913B0330913C032817390708F41E
:10405000C90140E0009789F120913303222309F43C
:104060003DC02530D9F12091E80023FD37C02091D3
:10407000E80022FD2FC02091E80020FFEBCF409107
:10408000F3002091F20030E0342B009759F02830F3
:10409000310540F444914093F100319601972F5F30
:1040A0003F4FF3CF41E02830310509F040E0209147
:1040B000E8002E772093E800CDCF4111CDCF0AC084
:1040C00080913303882351F0853041F08091E800DE
:1040D00083FD04C08091E80082FFF2CF8091E80068
:1040E0008B778093E80045C0803809F042C080910A
:1040F000E800877F8093E800809134038093F1008B
:104100008091E8008E77D3CE811133C08091370340
:10411000909138039927029764F58091E800877F92
:104120008093E80010913703109334030E946727AF
:10413000111106C08091E30087FD02C081E001C03B
:1041400084E08093330342E061EC81E00E948627A3
:1041500042E261EC84E00E94862742E261EC82E068
:104160000E94862742E260EC83E00E9486278091CD
:1041700033038091E80083FF10C08091E800877FBF
:104180008093E8008091EB0080628093EB0005C093
:1041900082E190E0E6E5F3E04FCFAA960FB6F894FF
:1041A000DEBF0FBECDBFDF91CF911F910895EF927B
:1041B000FF920F939701201B31092F3F310519F012
:1041C00010F02FEF30E02095382F320F08F43FEF3A
:1041D000832F0F91FF90EF900895EF92FF920F932E
:1041E0009701201B31092F3F310519F010F02FEFF7
:1041F00030E0322F3095482F430F08F44FEF842FD3
:10420000620F0F91FF90EF900895EF92FF920F933E
:10421000972F093438F4B701601B71096F3F71059E
:1042200019F010F06FEF70E0485F5F4F41315105BA
:1042300040F0A901485F5F4F4131510510F06FEF29
:1042400070E06095482F460F08F44FEF842F37FF3A
:1042500002C02D5F3F4F3595279535952795609185
:104260006C03620F792F0F91FF90EF900895EF92FA
:10427000FF920F93E00EF11CF90137FF03C0F19597
:10428000E195F10924E0EE0FFF1F2A95E1F7EF3FDA
:10429000F10519F014F0EFEFF0E09A0157FF03C0B9
:1042A00031952195310994E0220F331F9A95E1F75A
:1042B0002E173F070CF4F901EE0DFF1DEF3FF1053E
:1042C00019F010F0EFEFF0E02E2F2095382F320F7D
:1042D00008F43FEF832F0F91FF90EF900895EF9236
:1042E000FF920F93970195E0099F200D311D112436
:1042F0002F3F310519F010F02FEF30E02095382FC7
:10430000320F08F43FEF832F0F91FF90EF90089545
:1043100022E8241B08F420E0620F08954095282F1E
:10432000429F412D1124842F0895E42FF0E0EE0FD9
:10433000FF1FE153FE4F9081921B97FD9195292F0E
:1043400038E1239F212D1124620F08950F931F93AD
:1043500010E0F801EE0FFF1FE153FE4F90819057E0
:1043600097FD9195000F111FF801E053FE4FE0817A
:10437000F0E0B097DF01AA0FBB1F8D010E0F1F1FCA
:104380002003D001219FB00D1124E8E3F0E0E91BE8
:10439000F10997FDF3959F01220F331F89010E0F3D
:1043A0001F1F40039001419F300D11242A0F3B1F16
:1043B00037FF02C021583F4F220F232F221F330BFC
:1043C000620F1F910F9108950F931F93522F10E0CA
:1043D000F801EE0FFF1FE053FE4FE081F0E0B097D1
:1043E000EE0FFF1F9F015203D001539FB00D112408
:1043F000000F111FF801E153FE4F008110E000573C
:104400001109000F111F40039001419F300D11242D
:104410002A0F3B1F37FF02C021583F4F220F232F87
:10442000221F330B620F1F910F9108950F931F935B
:10443000522F10E0F801EE0FFF1FE053FE4FE08116
:10444000F0E0B0979F015203D001539FB00D1124AB
:10445000000F111FF801E153FE4F008110E00057DB
:10446000110940039001419F300D11242A0F3B1F79
:1044700037FF02C021583F4F220F232F221F330B3B
:10448000620F1F910F910895EF920F931F9393E086
:10449000099F80011124159507956E2D600F1F91BE
:1044A0000F91EF900895A22F50E0FA01EE0FFF1F39
:1044B000E053FE4F9081905297FD9195440F551F08
:1044C000FA01E153FE4F3081232F30E02A1B3109DE
:1044D000290F311D97FD3A95620F0895E42FF0E002
:1044E000EE0FFF1FE053FE4F6081621B0895E42F23
:1044F000F0E0EE0FFF1FE153FE4F6081621B089555
:10450000622F0895E42FF0E0EE0FFF1FE153FE4FFE
:10451000408134EE439F412D1124E82FF0E050E01C
:10452000445E5F4FDA01A21BB1099D01B7FF03C0D2
:1045300031952195310993E0220F331F9A95E1F7C8
:10454000AF01421B530B9A0157FF02C020E030E03D
:10455000582F259F212D1124822F0895E42FF0E05C
:10456000EE0FFF1FE153FE4F408134EE439F412D7C
:104570001124E72FF0E050E0445E5F4FDA01A21B08
:10458000B1099D01B7FF03C031952195310993E031
:10459000220F331F9A95E1F7AF01421B530B9A018B
:1045A00057FF02C020E030E0279F212D1124722FF9
:1045B0000895FC019B01009721F477FF2BC080E850
:1045C0000895AC0197FF04C044275527481B590B99
:1045D000B901640F751F37FD0CC0241B350BC901D1
:1045E000A5E0880F991FAA95E1F70E94632F80E24A
:1045F0000CC0CB0165E0880F991F6A95E1F7BA01FD
:10460000621B730B0E94632F80E6861BF7FF03C0BB
:104610008195089580E00895EF920F93CF93DF93F3
:10462000D72FC82FC9010E19BA010E94D922602FB5
:10463000681B7D2F8C2FDF91CF910F91EF90089504
:104640000F93CF93DF93D72FC82FC901BA010E94D0
:10465000D922682F600F7D2F8C2FDF91CF910F9182
:104660000895EF920F931F93CF93DF93D62FC72F09
:10467000182FC9010E19010FBA010E94D922081B77
:10468000202F219F212D1124822F6D2F7C2FDF9130
:10469000CF911F910F91EF900895EF920F931F9379
:1046A000CF93DF93D62F172FC82FC9010E19070FED
:1046B000BA010E94D922702F781B719F712D11248D
:1046C0006D2F8C2FDF91CF911F910F91EF90089557
:1046D000FF920F931F93CF93DF93F62ED72F182FB0
:1046E000C901C12FC01BBA010E94D922982F990F6E
:1046F000890FC81B2C2F219F212D1124822F6F2D54
:104700007D2FDF91CF911F910F91FF900895FF9220
:104710000F931F93CF93DF93F62E172FD82FC90136
:10472000C72FC01BBA010E94D922982F990F890F59
:104730007C2F781B719F712D11246F2D8D2FDF9190
:10474000CF911F910F91FF9008950C94D62C0C944B
:10475000E22CEBE6F3E085E3808380911F019091EA
:104760002001A091210181839283A3838FE7848319
:104770008FEF858346E050E06CE170E0CF010E944E
:10478000B82E10926A030895482F982F46FD9095F1
:10479000E92FEF739F7046FD9F5FE295EF70EE0F7C
:1047A000F0E0E75DFD4F2181299F802D212D11240F
:1047B00082958F702295207F822B3081982F930FC6
:1047C000892F47FD8195805808950F931F93CF93AC
:1047D000DF93D62F072F182FC42F822F0E94C423B8
:1047E000EC2FF0E0EE0FFF1FE153FE4F9081905849
:1047F000890F87FD8195880F682F2CE0629F612DBE
:1048000011246D0F702F812FDF91CF911F910F9188
:10481000089540911D0150911E0125E038E0429F0E
:10482000C001439F900D529F900D1124875E994CBB
:1048300090931E0180931D01890F0895BC01823061
:10484000910508F40895613E8EE1780748F49B01D4
:1048500095E0369527959A95E1F748E0420F01C01B
:104860004FEF91E0242F30E0290F311D359527952A
:10487000229FF001239FF00DF00D11246E177F078A
:1048800018F44FEF420F04C02F3F39F091E0920F20
:10489000491740F78FEF890F08958FEF08950F9311
:1048A000CF93DF93D72FC82F47FD4195E8E3F0E082
:1048B000CF01841B910947FD9395889FB001899F83
:1048C000700D700D1124229FC001239F900D900D3B
:1048D0001124860F971F0E941E24682F660F860FD3
:1048E000682F600F7D2F8C2FDF91CF910F9108954E
:1048F00020E030E0869F212D969F200D311D112450
:10490000C9010895CF92DF92EF92FF920F931F9308
:10491000CF93DF93F62E472FE82FF0E0711106C0FA
:10492000EA54FC4F8491782F682F73C0272F30E012
:10493000EA54FC4FE491FE2F0E2F10E056E0659FE5
:10494000C0011124CFEFD0E0BE010E944F2F5BEADF
:104950005603C001579F900D11248F0D911D8F0D8F
:10496000911D982F990F980F7E01E21AF30AE09E8D
:10497000D001E19EB00DF09EB00D11248B2F499F08
:10498000A0011124452F55277E01E41AF50AE09E67
:10499000A001E19E500DF09E500D11246E01C91A28
:1049A000D108C29E7001C39EF00CD29EF00C11245F
:1049B0002F2D3327C21BD30BC09F9001C19F300DF9
:1049C000D09F300D1124932F6230710591F048F47F
:1049D00061157105E1F061307105B9F49E2FE52F85
:1049E00016C06430710569F040F06630710579F0E9
:1049F0000CC09E2FEB2F832F0AC0EB2F8F2F952FEC
:104A000006C09B2F8E2FE32F02C09B2F852F7E2F5A
:104A1000692FDF91CF911F910F91FF90EF90DF9061
:104A2000CF9008950E94942920917B03211104C006
:104A300020917C03222321F09093780380937703C5
:104A400020917D03211104C020917E03222321F0B7
:104A50009093760380937503E0918103F091820334
:104A6000309749F082E0809379030480F581E02D4E
:104A700089E793E009940895803F39F490917C038D
:104A800097FF35C010927C0359C0813F29F4909163
:104A90007C031916BCF32BC090917B03823F29F451
:104AA00097FF25C010927B0349C0833F19F4191664
:104AB000CCF31DC090917D03893F29F41916BCF4F5
:104AC00010927D033BC08A3F19F497FF10C0F8CFC6
:104AD0008B3F39F490917E0397FF09C010927E03BB
:104AE0002DC08C3F21F490917E031916BCF39CE0FD
:104AF000980F953080F421E030E0A90102C0440F06
:104B0000551F9A95E2F7CA01809590917A038923FF
:104B100080937A0313C08D3F21F4809174038E7FBC
:104B20000BC08E3F21F4809174038D7F05C08F3FB1
:104B300029F4809174038B7F8093740380917B03AD
:104B4000811106C080917C03811102C01092730311
:104B500080917D03811106C080917E03811102C086
:104B60001092720308958091740380FD16C081FD38
:104B700016C082FD18C080917203882391F088329C
:104B800090F428E0829FC001112468E270E00E9446
:104B9000632F862F672B29F007C082E0089584E0F9
:104BA000089581E0089588E008958091740380FD60
:104BB00014C081FD14C082FD16C080917303882348
:104BC00081F0843180F422E3829FC001112464E1EA
:104BD00070E00E94632F862F08958CE0089589E18C
:104BE000089585E0089582E30895803F21F40E94AE
:104BF000D525819504C0813F29F40E94D525809355
:104C00007C030895823F21F40E94D525819504C03C
:104C1000833F29F40E94D52580937B030895893F23
:104C200019F40E94B32505C08A3F31F40E94B325D0
:104C3000819580937D0308958B3F21F40E94B325D5
:104C4000819504C08C3F29F40E94B32580937E0394
:104C500008959CE0980F953078F421E030E0A901A8
:104C600002C0440F551F9A95E2F7CA0190917A034A
:104C7000892B80937A0308958D3F21F480917403EA
:104C800081600BC08E3F21F480917403826005C067
:104C90008F3F29F480917403846080937403089596
:104CA000089580912803089580938A0370938C035C
:104CB00060938B03809133038430F9F48093E9008F
:104CC0008FEF9091E800815095FD06C095ED9A9583
:104CD000F1F700008111F5CF8091E80085FF0DC04C
:104CE00040E050E063E070E08AE893E00E94C01D7D
:104CF0008091E8008E778093E8000895BC0184E0FD
:104D00000C945426BC0183E00C94542624E0209398
:104D1000E9002FEF3091E800215035FD06C035ED58
:104D20003A95F1F700002111F5CF2091E80025FF19
:104D30000BC040E050E066E070E00E94C01D809132
:104D4000E8008E778093E8000895CF93DF9321E009
:104D50002093E9002FEF3091E800215035FD06C087
:104D600035ED3A95F1F700002111F5CF2091E800DB
:104D700025FF14C0EC0140E050E068E070E00E94C4
:104D8000C01D8091E8008E778093E80088E0FE01E6
:104D9000A9E2B3E001900D928A95E1F7DF91CF91FE
:104DA00008951F920F920FB60F9211242F933F93E5
:104DB0004F935F936F937F938F939F93AF93BF9323
:104DC000CF93DF93EF93FF93C091E900CF70809171
:104DD000EC00D82FD17080FDD0E81092E9008091CE
:104DE000F000877F8093F00078940E94FF1D10925E
:104DF000E9008091F00088608093F000CD2BCF70A7
:104E0000C093E900FF91EF91DF91CF91BF91AF91F6
:104E10009F918F917F916F915F914F913F912F91D2
:104E20000F900FBE0F901F901895E8EDF0E0808175
:104E30008E7F80831092E2001092DA001092E100DF
:104E4000A0EEB0E08C9181608C9380818F7780831D
:104E500019BCA7EDB0E08C918E7F8C9380818F7E02
:104E6000808310928D0308952091E4003091E50035
:104E700095E64091EC00842F817040FF23C0809123
:104E8000E80080FD1DC080913303882399F08530B0
:104E900099F08091EB0085FD11C04091E4005091A4
:104EA000E5002417350729F3915011F09A01E1CF5D
:104EB00084E0089582E0089583E0089581E00895F4
:104EC00080E008954091E80042FFDDCF0895809191
:104ED000350387FF11C08091E80082FD05C08091F5
:104EE00033038111F8CF11C08091E8008B770BC09C
:104EF00080913303882349F08091E80080FFF8CF48
:104F00008091E8008E778093E8000895982F97307D
:104F100068F59093E900981739F07091EC002091B2
:104F2000ED005091F00003C0242F762F50E021FDBA
:104F300002C09F5FECCF3091EB003E7F3093EB00DF
:104F40003091ED003D7F3093ED003091EB0031600A
:104F50003093EB007093EC002093ED005093F00041
:104F60002091EE0027FDE5CF80E008958F708093BB
:104F7000E90081E00895CF92DF92EF92FF920F93C4
:104F80001F93CF93DF93C8EDD0E088818F7E888315
:104F9000E7EDF0E080818160808384E082BF81E082
:104FA00080938D0388818E7F888302EE10E0F80164
:104FB00010821092DA0081EEC82ED12CF6011082F8
:104FC00088818F77888388818068888388818F7DB6
:104FD000888319BC10923303109234031092320369
:104FE0001092310390EEE92EF12CF70180818B7F36
:104FF000808388818160888342E060E080E00E9455
:105000008627F60180818E7F8083F8018081816010
:105010008083808188608083F70180818E7F808398
:10502000888180618883DF91CF911F910F91FF90DC
:10503000EF90DF90CF9008951F920F920FB60F92CE
:1050400011242F933F934F935F936F937F938F938D
:105050009F93AF93BF93EF93FF938091E10082FF03
:1050600009C08091E20082FF05C08091E1008B7F42
:105070008093E1008091DA0080FF2AC08091D800FF
:1050800080FF26C08091DA008E7F8093DA008091C5
:10509000D90080FF18C080E189BD82E189BD09B4D3
:1050A00000FEFDCF81E08093330380918D03811159
:1050B0000FC00E9415270E94BB278091E2008460E8
:1050C0008093E20005C019BC1092330310928D0347
:1050D0008091E10080FF17C08091E20080FF13C043
:1050E0008091E2008E7F8093E2008091E2008061F7
:1050F0008093E2008091D80080628093D80019BC30
:1051000085E0809333038091E10084FF30C080917B
:10511000E20084FF2CC080E189BD82E189BD09B431
:1051200000FEFDCF8091D8008F7D8093D8008091C4
:10513000E1008F7E8093E1008091E2008F7E80937A
:10514000E2008091E20081608093E200809134036C
:10515000882311F084E007C08091E30087FD02C03E
:1051600081E001C083E08093330380913303809119
:10517000E10083FF27C08091E20083FF23C080917C
:10518000E100877F8093E10082E0809333031092F7
:1051900034038091E1008E7F8093E1008091E200F2
:1051A0008E7F8093E2008091E20080618093E20034
:1051B00042E060E080E00E9486278091F0008860F5
:1051C0008093F000FF91EF91BF91AF919F918F91EC
:1051D0007F916F915F914F913F912F910F900FBEF3
:1051E0000F901F90189520913B0330913C03261798
:1051F000370748F06115710539F42091E8002E77E2
:105200002093E80001C0B901FC0120E0611571059F
:1052100079F1809133038823F1F18530F1F18091A8
:10522000E80083FD3CC08091E80082FD2EC08091A3
:10523000E80080FFEBCF2091F3008091F20090E036
:10524000922B6115710551F08830910538F4219148
:105250002093F100615071090196F3CF21E0089786
:1052600009F020E08091E8008E778093E800CECFAF
:105270002111CFCF0AC080913303882361F085309C
:1052800061F08091E80083FD0AC08091E80082FF10
:10529000F2CF80E0089582E0089583E0089581E0F0
:1052A000089587E797E790930108809300089AE0B4
:1052B00088E10FB6F894A895809360000FBE909394
:1052C0006000FFCF78941F920F920FB60F921124B7
:1052D0008F939F93AF93BF938091860390918703A1
:1052E000A0918803B09189030196A11DB11D8093FF
:1052F000860390938703A0938803B0938903BF919B
:10530000AF919F918F910F900FBE0F901F901895A6
:105310002FB7F8946091860370918703809188037A
:10532000909189032FBF08952FB7F8948091860339
:1053300090918703A0918803B09189032FBF0895AE
:105340001F920F920FB60F9211248F939F93AF93DA
:10535000BF9380918503811113C080918603909142
:105360008703A0918803B09189034196A11DB11DC7
:105370008093860390938703A0938803B093890357
:10538000BF91AF919F918F910F900FBE0F901F9083
:1053900018959C012A5F3F4FFC014281461301C0D2
:1053A0001282019682179307B9F708959C01FC01B8
:1053B00032969FEF80E04191461789F09F3F19F4A4
:1053C000411101C0982F8F5F8630A9F79F3F39F0B8
:1053D000F901E90FF11D97FDFA956283089508958B
:1053E00020918303309184032817390771F090933B
:1053F000840380938303E0918103F09182033097CB
:1054000021F00084F185E02D0994089520917F0317
:10541000309180032817390771F0909380038093AF
:105420007F03E0918103F0918203309721F00680A1
:10543000F781E02D09940895E0918103F0918203B2
:10544000309721F00190F081E02D099480E00895DB
:10545000CF93DF93C7E5D2E060E0CE010E94C82E73
:105460002196C11584E0D807B9F7DF91CF9108954F
:10547000CF92DF92EF92FF920F931F93CF93DF9320
:10548000C0E0D0E08E0104571F4F6E018EE0C80EC1
:10549000D11CFE01EA54FB4FE590F4906F2DCE0134
:1054A00087960E94C82E6E2DCE0188960E94C82E27
:1054B0002296CC15DD0569F70C171D0731F7E801B9
:1054C00000331240F9F6DF91CF911F910F91FF90B9
:1054D000EF90DF90CF9008950F931F93CF93DF93BA
:1054E000C42FD0E0CC0FDD1F2EE0629FC00DD11D78
:1054F00011243CE8839FC00DD11D1124CE01879655
:105500000E94AA2E082F10E0102F0027CE018896A7
:105510000E94AA2E9801282BC901DF91CF911F91DB
:105520000F910895462F843038F47A3028F467308C
:1055300018F4672F0C946C2A80E090E0089580E0C6
:1055400090E00E94062A80E090E00E94F0291092EC
:105550001F0310921E030E945A18E9E7F3E086E049
:10556000DF011D928A95E9F710927303109272037E
:10557000109274030C941225CF92DF92FF920F9336
:105580001F93CF93DF936C010091710380912103EE
:10559000082BC7E0D0E010E0C8010C2E02C09595A2
:1055A00087950A94E2F780FD04C02197A8F7F12CB3
:1055B00009C0FC2EB6018C2F0E94922A0E943E1632
:1055C000019799F38F2DDF91CF911F910F91FF904C
:1055D000DF90CF900895CF93DF93EC010E94BC2A17
:1055E000BE010E94922A0E943E16DF91CF9108953B
:1055F00027E0929F800D1124682F66956695669529
:10560000982F977083E0689FB001112440E050E02C
:1056100080E0FB01E40FF51FE257FC4F208130E0F2
:10562000092E02C0369527950A94E2F72170332798
:10563000042E01C0220F0A94EAF7822B4F5F5F4FBE
:105640004330510531F7089527E0929F800D1124D2
:10565000E82FE695E695E695877051E001C0550F75
:105660008A95EAF783E0E89FF0011124E257FC4FA6
:1056700020E030E070E04081CB01022E02C0969520
:1056800087950A94E2F78170819584278523842782
:1056900081932F5F3F4F2330310569F70895809341
:1056A00071030C949F2A21E030E001C0220F8A95FB
:1056B000EAF720958091710382230C944F2B21E00F
:1056C00030E001C0220F8A95EAF780917103822BA6
:1056D0000C944F2B809321030C949F2AFC01808112
:1056E00091810E94EB2A292F2F70E92FE295EF700C
:1056F0004E2F50E0FA013297EE30F105B8F4E7553D
:10570000FF4F0C94772F803F99F018F4883E70F487
:105710000FC0843F59F40CC0883E50F0813F31F4F3
:1057200007C0822F869586958695089580E0089516
:1057300081E0089586E0EFEDF2E0DF011D928A95A9
:10574000E9F70C949F2A882321F00E9453180C94A7
:105750005A180895882339F090912603892B809355
:1057600026030C945A180895882309F45CC08238E3
:1057700069F40E941C2A81FF56C069E38DED92E016
:105780000E94D6290E945A1869E30EC0833891F40A
:105790000E941C2A80FF47C063E58DED92E00E94C5
:1057A000D6290E945A1863E58DED92E00E94C9291E
:1057B0000C945A18843869F40E941C2A82FF33C062
:1057C00067E48DED92E00E94D6290E945A1867E4A2
:1057D000EBCF9CEF980F913A10F4682FE5CF90E251
:1057E000980F983050F4877091E001C0990F8A9516
:1057F000EAF7892F0E945318DBCF9BE5980F93306F
:1058000020F480E090E00C94062A98E5980F9731F8
:1058100020F480E090E00C94F029803F20F00E947A
:105820003C250C9412250895CF93882309F49EC03B
:10583000C82F8238B1F40E941C2A81FD97C069E309
:105840008DED92E00E94D6290E945A182FEF81EE2A
:1058500094E0215080409040E1F700C0000069E3EF
:1058600017C08338E1F40E941C2A80FD7FC063E5E5
:105870008DED92E00E94D6290E945A182FEF81EEFA
:1058800094E0215080409040E1F700C0000063E5C3
:105890008DED92E00E94C929CF910C945A1884385A
:1058A000B1F40E941C2A82FD61C067E48DED92E094
:1058B0000E94D6290E945A182FEF81EE94E02150C1
:1058C00080409040E1F700C0000067E4E1CF8CEF3A
:1058D0008C0F813A80F4EFEDF2E085EE92E02191B9
:1058E000C217E1F18E179F07D1F76C2F8DED92E073
:1058F0000E94D629D1CF80E28C0F883068F4C7701F
:1059000081E090E001C0880FCA95EAF790912603E4
:10591000892B80932603C0CFEBE5EC0FE33040F4F6
:10592000F0E0E75BFE4F808190E0CF910C94062A77
:10593000E8E5EC0FE73150F4F0E0EE0FFF1FE45B19
:10594000FE4F80819181CF910C94F029C03F70F07F
:105950008C2F0E94F525CF910C9412256C2F8DED84
:1059600092E00E94C9290E945A18BFCFCF91089592
:105970001F93CF93DF93182F893319F0C0E0D0E045
:1059800002C0C0E5D0E0812F0E94142C209741F086
:105990008FE99FE00197F1F700C000002197F6CF53
:1059A000812FDF91CF911F910C94B42BE9EAF3E0A2
:1059B00094E0E330F90729F08183608342833396D2
:1059C000F7CF0895FC01EE0FFF1F8E0F9F1FFC0104
:1059D000E755FC4F6183408322830895EBE6F3E0B3
:1059E00024813AE0231B08F420E0248380916A0399
:1059F000816080936A030895EBE6F3E024813AE046
:105A0000230F08F42FEF248380916A038160809331
:105A10006A030895539A8BB1877F9BB198602FB723
:105A2000F894E9EAF3E034E0E330F30789F03191E8
:105A300048E09BB9000000C037FF8BB9330F00006E
:105A400000C000C000C08BB900C04A9591F7EBCFF1
:105A50002FBF8FE594E00197F1F700C00000089593
:105A6000EBE6F3E0438125E0421B08F440E081814E
:105A7000628190E00C94EC1DEBE6F3E0438125E0BD
:105A8000420F08F44FEF8181628190E00C94EC1D8D
:105A9000EBE6F3E0628128E0621B08F460E08181BC
:105AA000438190E00C94EC1DEBE6F3E0628128E08A
:105AB000620F08F46FEF8181438190E00C94EC1D3C
:105AC000EBE6F3E0818190E04381628108970C94DA
:105AD000EC1DEBE6F3E0818190E043816281089662
