:100000000C94C5020C940C030C940C030C940C037C
:100010000C940C030C940C030C940C030C940C0324
:100020000C940C030C940C030C947A1A0C94B619CF
:100030000C94771C0C940C030C940C030C940C0380
:100040000C940C030C940C030C940C030C940C03F4
:100050000C940C030C94391C0C940C030C940C039E
:100060000C940C030C940C030C940C030C940C03D4
:100070000C940C030C940C030C940C030C940C03C4
:100080000C940C030C940C030C940C030C940C03B4
:100090000C940C030C940C030C940C030C940C03A4
:1000A0000C940C030C940C030C940C031105110517
:1000B000240524051A052405240524051105110528
:1000C0001F05240524051F05290829085C085C086C
:1000D000CF08ED08F909F909F8086C097D097D09CF
:1000E000500E530E6F0E7C0E830EA30E410F410F68
:1000F000410F410F410FA60EA80EAD0ED30EF60E06
:10010000F90EFC0E200FC817EF179819EF17981962
:100110003B185E189819531963190000000000007D
:1001200000000000000000000000000000000000CF
:1001300000000000000000000000000000007E0F32
:1001400000D4FFFFFFC7000000780000000000009F
:1001500000002A2B28000000000000000000000022
:10016000000000000029000000002C1E3420212285
:1001700024342627252E362D3738271E1F202122EE
:10018000232425263333362E37381F040506070867
:10019000090A0B0C0D0E0F10111213141516171857
:1001A000191A1B1C1D2F3130232D35040506070895
:1001B000090A0B0C0D0E0F10111213141516171837
:1001C000191A1B1C1D2F3130354C05010902A101E4
:1001D00085020901A1000509190129081500250159
:1001E0009508750181020501093009311581257FC6
:1001F00095027508810609381581257F95017508D6
:100200008106050C0A38021581257F950175088144
:1002100006C0C005010980A101850319012AB700A4
:10022000150126B700950175108100C0050C090164
:10023000A101850419012AA002150126A002950139
:1002400075108100C00660FF0961A10109621500F7
:1002500026FF009520750881020963150026FF001E
:10026000952075089102C005010906A1010507192D
:10027000E029E715002501950875018102950175B2
:100280000881010507190029FF150026FF009506C2
:100290007508810005081901290595057501910268
:1002A000950175039101C009025B00030100A032B2
:1002B00009040000010301010009211101000122CC
:1002C00040000705810308000A0904010002030039
:1002D00000000921110100012222000705820320EC
:1002E00000010705030320000109040200010300C7
:1002F0000000092111010001227B00070584032071
:10030000000A1201000200000008091216B50100DF
:100310000102000124035400520065004B0020003C
:1003200047005400340030002000470052004900CC
:100330004E00490055004D0000001A03640069009A
:100340006700690074006100720068007900740041
:1003500068006D000000040309040100165C14002D
:100360001A0008001500170001002B0004001600F9
:10037000070009000A000100E1001D001B00060043
:10038000190005000100105091642A612C42000000
:100390000000010001000100010001000100000057
:1003A0001C0018000C00120033002D0001000B008F
:1003B0000D000E000F0013003400010005001100B5
:1003C00010003600370038000100000000002C4209
:1003D000287190781150010000000000000000001A
:1003E0000000000000000100010001000100010008
:1003F00001000100010001000100010001000100F5
:1004000001000100010001000100010001000100E4
:100410000100010001002A68010000000000010045
:1004200001000100010001000100000001000100C5
:1004300001000100010001000100010001000100B4
:1004400001000100010001000100010001000100A4
:1004500001000100010000000000010028789071F7
:10046000010001000000000000000000000000008A
:100470000000010035001E001F00200021002200A6
:100480000100010001000100010001000A08010053
:100490000100010001000100190801000100010034
:1004A00001004C00035100000000010001000100A8
:1004B00001000100010000002300240025002600A7
:1004C00027002E0001005000510052004F00010093
:1004D00001000100F600B600B7002F003000310027
:1004E00001000000000003513B0001000100010079
:1004F00000000000000000000000000000000100FB
:1005000001003A003B003C003D003E0001000100BC
:1005100001000100010001000100010001000100D3
:1005200001000100010001000100010001000100C3
:1005300001000000000001000100010001000100B5
:10054000010000003F004000410042004300440021
:100550000100010001000100010001000100010093
:100560000100010001000100010001000100000084
:100570000000010001000100010001000000000076
:100580000000000000000000000011241FBECFEF9B
:10059000DAE0DEBFCDBF04B603FE27C0809146027D
:1005A00090914702A0914802B09149028730904B48
:1005B000A740B04BD1F4109246021092470210921D
:1005C00048021092490214BE84B7877F84BF0FB6D9
:1005D000F894A895809160008861809360001092E3
:1005E00060000FBEE0E0F8E3099511E0A0E0B1E0A3
:1005F000E8E2F1E402C005900D92AA37B107D9F7FD
:1006000022E0AAE7B1E001C01D92A634B207E1F7EB
:100610000E94450A0C9492200C94000027E0929FBF
:10062000800D1124682F669566956695982F9770B2
:1006300083E0689FB001112440E050E080E0FB01BE
:10064000E40FF51FE358FE4F208130E0092E02C071
:10065000369527950A94E2F721703327042E01C0BE
:10066000220F0A94EAF7822B4F5F5F4F4330510508
:1006700031F7089527E0929F800D1124E82FE69529
:10068000E695E695877051E001C0550F8A95EAF727
:1006900083E0E89FF0011124E358FE4F20E030E0B2
:1006A00070E04081CB01022E02C0969587950A9496
:1006B000E2F78170819584278523842781932F5FBA
:1006C0003F4F2330310569F70895882339F0909121
:1006D0000F02892B80930F020C948D13089580E0F4
:1006E00090E00E94DD1C80E090E00E94C71C109208
:1006F0000702109206020E948D13EEE2F2E086E0FD
:10070000DF011D928A95E9F71092280210922702C4
:10071000109229020C94BC1D882321F00E9486139C
:100720000C948D130895882309F45CC0823869F411
:100730000E94F31C81FF56C069E385EC91E00E94A2
:10074000AD1C0E948D1369E30EC0833891F40E94A2
:10075000F31C80FF47C063E585EC91E00E94AD1C6F
:100760000E948D1363E585EC91E00E94A01C0C941F
:100770008D13843869F40E94F31C82FF33C067E450
:1007800085EC91E00E94AD1C0E948D1367E4EBCFD5
:100790009CEF980F913A10F4682FE5CF90E2980FF4
:1007A000983050F4877091E001C0990F8A95EAF76C
:1007B000892F0E948613DBCF9BE5980F933020F49E
:1007C00080E090E00C94DD1C98E5980F973120F4C0
:1007D00080E090E00C94C71C803F20F00E94E61D52
:1007E0000C94BC1D0895CF93882309F49EC0C82F94
:1007F0008238B1F40E94F31C81FD97C069E385EC57
:1008000091E00E94AD1C0E948D132FEF81EE94E0C9
:10081000215080409040E1F700C0000069E317C01C
:100820008338E1F40E94F31C80FD7FC063E585EC12
:1008300091E00E94AD1C0E948D132FEF81EE94E099
:10084000215080409040E1F700C0000063E585EC56
:1008500091E00E94A01CCF910C948D138438B1F4C8
:100860000E94F31C82FD61C067E485EC91E00E9468
:10087000AD1C0E948D132FEF81EE94E0215080403B
:100880009040E1F700C0000067E4E1CF8CEF8C0FEF
:10089000813A80F4E7ECF1E08DEC91E02191C21710
:1008A000E1F18E179F07D1F76C2F85EC91E00E9444
:1008B000AD1CD1CF80E28C0F883068F4C77081E026
:1008C00090E001C0880FCA95EAF790910F02892B3A
:1008D00080930F02C0CFEBE5EC0FE33040F4F0E083
:1008E000E65CFE4F808190E0CF910C94DD1CE8E542
:1008F000EC0FE73150F4F0E0EE0FFF1FE35CFE4F2A
:1009000080819181CF910C94C71CC03F70F08C2FD7
:100910000E949F1ECF910C94BC1D6C2F85EC91E022
:100920000E94A01C0E948D13BFCFCF9108951F93EA
:10093000CF93DF93182FEB010E94F303209741F030
:100940008FE99FE00197F1F700C000002197F6CFF3
:10095000812FDF91CF911F910C949303CF92DF925F
:10096000FF920F931F93CF93DF936C0100912602A8
:1009700080910902082BC7E0D0E010E0C8010C2EDE
:1009800002C0959587950A94E2F780FD04C02197EF
:10099000A8F7F12C09C0FC2EB6018C2F0E94691D0E
:1009A0000E947C11019799F38F2DDF91CF911F91B8
:1009B0000F91FF90DF90CF900895809326020C94C2
:1009C0006F0321E030E001C0220F8A95EAF72095FD
:1009D0008091260282230C94DD0421E030E001C0E6
:1009E000220F8A95EAF780912602822B0C94DD046F
:1009F000809309020C946F03FC01808191810E9415
:100A00006A14292F2F70E92FE295EF704E2F50E0D6
:100A1000FA013297EE30F105B8F4EA5AFF4F0C9420
:100A2000501F803F99F018F4883E70F40FC0843F47
:100A300059F40CC0883E50F0813F31F407C0822F3A
:100A4000869586958695089580E0089581E00895BD
:100A500086E0E7ECF1E0DF011D928A95E9F70C945E
:100A60006F031F93CF93DF93CDB7DEB767970FB6B2
:100A7000F894DEBF0FBECDBF4B8B5C8B6D8B7E8B36
:100A80008F8B61111092070286E09E01235F3F4F1A
:100A9000D901E82F1D92EA95E9F795E0FE017396DA
:100AA000D90101900D929A95E1F79C894E895F8951
:100AB0007B897D879E876F87598B488BF901DE0183
:100AC000179601900D928A95E1F7CE0107960E9444
:100AD000771481113EC086E0FE013796DE01119643
:100AE00001900D928A95E1F7FF81E8856A857B8503
:100AF0006115710531F0EF3F31F481E0FF3F19F4EA
:100B000003C081E001C080E080FD23C02091D301BB
:100B100030E0C9010196877099274091040250E0A6
:100B20008417950779F1F983EA837D836C8396E0D6
:100B3000929FD001939FB00D1124AC52BE4FFE0185
:100B4000319601900D929A95E1F78093D3010E941E
:100B5000F41316E0809104029091D301891709F1F2
:100B6000189FC00111248C529E4F0E947714882335
:100B7000C1F08091040290E00196877099278093DC
:100B80000402E8CF10920F020E9428051092D301B0
:100B900010920402EDECF1E086E0DF011D928A95EF
:100BA000E9F767960FB6F894DEBF0FBECDBFDF91B1
:100BB000CF911F9108953F924F925F926F927F92D3
:100BC0008F929F92AF92BF92CF92DF92EF92FF925D
:100BD0000F931F93CF93DF93CDB7DEB729970FB64F
:100BE000F894DEBF0FBECDBFFC01808191812381CF
:100BF0003481232B31F09F3F31F491E08F3F19F482
:100C000003C091E001C090E090FD27C47F0185E022
:100C1000DE01119601900D928A95E1F7F70122818C
:100C200089819A81222349F00E94AE04182F682FEF
:100C300089819A810E943A0303C00E940E03182FF3
:100C400069817A81812F0E94691D8C01F70182815F
:100C5000882309F46EC1980122513F4520313105A6
:100C600008F0FBC08FEF93E00E94FA1E8111FEC0D6
:100C7000025137E5832E32E0932E002379F0811460
:100C8000F4E09F0609F4F2C0C4010E94FA1E81112B
:100C900001C001502FEF821A920AEFCF1E821F82ED
:100CA00018861986442443942AE0322E84010F5F6B
:100CB0001F4FC4010E94FA1E8E831F82882309F4ED
:100CC000D5C09FEF980F933060F48F834E8232E04F
:100CD000830E911CC8010E94FA1E8887811102C0F0
:100CE000C5C048018E010A5F1F4FF80120812223F1
:100CF000E9F2213009F053C08181813081F468012B
:100D0000F2E0CF0ED11CF8018281893319F460E53D
:100D100070E002C060E070E00E9497040AC0823078
:100D200051F46801F2E0CF0ED11CF80182810E94DB
:100D3000F30386018FC0833049F46801F2E0CF0EDF
:100D4000D11CF80182810E949303F3CF843019F003
:100D50000F5F1F4F7FC0F80122810E5F1F4F80E0A1
:100D600090E030E0205331092A30310568F4389E94
:100D7000A001399E500D1124C901840F951F0F5FEA
:100D80001F4FF8012081EDCF009709F463C0EFE910
:100D9000FFE03197F1F700C000000197F5CFE22F97
:100DA000F0E0E65BFE4F5490822F869586958695FF
:100DB00090E0FC01E65CFE4F64902770712C022EDF
:100DC00002C0759467940A94E2F7F1E06F227724E9
:100DD000FC01E65DFE4FA490B12C022E02C0B5943A
:100DE000A7940A94E2F731E0A322BB24FC01E65E5B
:100DF000FE4FC490D12C02C0D594C7942A95E2F737
:100E000081E0C822DD246114710419F081EE0E9492
:100E1000F303A114B10409F457C086EE0E94F30352
:100E200099E3591609F44AC060E070E0852D0E94EC
:100E30009704AB2819F086EE0E949303672819F0F7
:100E400081EE0E949303CD2829F060E070E08CE2EF
:100E50000E9497040F5F1F4F48CF00312FE5120704
:100E6000E1F581E00E94ED040E94D3168091050215
:100E7000877009F4F2C2F7018281882309F4EDC278
:100E800080919B0182FDE9C282E029960FB6F89419
:100E9000DEBF0FBECDBFDF91CF911F910F91FF90AD
:100EA000EF90DF90CF90BF90AF909F908F907F900A
:100EB0006F905F904F903F900C94BA1360E570E094
:100EC00089E30E949704B7CFF9E35F12ADCF60E5E5
:100ED00070E089E30E949704B1CF01313FE5130729
:100EE00011F482E0BFCF0631FCE51F0781F58823AE
:100EF00091F080910F028A7A91E009F490E090934A
:100F00007C01882311F065E301C069E285EC91E082
:100F10000E94AD1C0BC080917C01882311F065E319
:100F200001C069E285EC91E00E94A01C0E948D1333
:100F30009DCF00319FE5190711F481E005C0013113
:100F4000EFE51E0781F682E00E94E1048DCF882341
:100F500099F10A35EDE51E0751F150F401152CE524
:100F60001207A9F00E3D1C4539F50E9416137ECFDD
:100F70000B358DE51807E9F00C351D45E9F4809136
:100F80009B0182FB882780F991E0892713C010928A
:100F90000F020E942805EFEFF4E32CE0E150F0404F
:100FA0002040E1F700C000000E94281C5FCF81E0D4
:100FB00001C080E00E94D713F70182810081118176
:100FC000882349F0C8010E94AE04D82E682FC801BA
:100FD0000E943A0304C0C8010E940E03D82EB80133
:100FE0008D2D0E94691D0E947C11B82E192F982EFC
:100FF000F7010281A580A2949FE0A92280910502B9
:101000008770B9F00023A9F0812F807F803421F010
:1010100080E28B0D883068F080919B0182FD09C0D1
:1010200082E00E94BA13809105028770DD24D39478
:101030008111D12CC12EC2948FE0C8228C2D90E05A
:101040008C30910508F0D5C1FC01EC59FF4F0C9490
:10105000501F812F807F1F70882311F01295107F01
:101060000023B9F0112309F4B2C180E28B0D88305E
:1010700010F0911006C080910F02182B10930F02F0
:1010800005C080910702182B109307020E948D1350
:101090009EC18B2D0E949303112309F4AAC180E203
:1010A0008B0D883080F1992071F1109580910702A5
:1010B0001823109307022AC0812F807F1F7080326F
:1010C00011F01295107F8B2D992021F0F1E09F16E1
:1010D000D9F149C080919B0182FF1BC0002369F0B8
:1010E000112339F080910F02182B10930F020E94E8
:1010F0008D1380E00E94F3037CC180E00E94930383
:10110000112309F476C1812F0E9486130E948D134A
:1011100070C1002381F080910802AA2051F021E0E3
:10112000A21207C0182B181709F463C11093080204
:1011300060C1812B10C0AA2021F031E0A31609F470
:1011400058C10E94801327C0002341F085E08A1512
:1011500008F44FC1812F0E9465034BC194E09A159A
:1011600008F447C118C0002349F0AA2099F3F701F9
:10117000858180FF2CC18F708583ECCFAA2059F028
:10118000893309F033C1FFEF27EE33E0F1502040FF
:101190003040E1F729C1812F0E948C032AC1812FA1
:1011A00086958695837019F0813061F022C1002305
:1011B00021F08B2D912F937002C080E090E00E946F
:1011C000DD1C1DC1002321F08B2D912F937002C0D7
:1011D00080E090E00E94C71C12C18B2D002319F003
:1011E0000E949F1E02C00E94E61D0E94BC1D07C1F6
:1011F000812F8370A9F5011100C14B2D42954695B1
:101200004770440F440F8B2D8F7090E09C01042E8B
:1012100001C0220F0A94EAF7B4FE08C08FE090E004
:1012200001C0880F4A95EAF7809501C080E01695C5
:1012300016951370123069F088F4909109021130FC
:1012400019F0822B892302C0922B892B0E94F8046B
:10125000D4C0822B909109028927F8CF822BF6CF38
:10126000002319F0812F817001C08695882309F42D
:10127000C4C04B2D429546954770440F440F8B2DAB
:101280008F7090E09C01042E01C0220F0A94EAF7AF
:10129000B4FE08C08FE090E001C0880F4A95EAF7DD
:1012A000809501C080E0169516951370123059F0A4
:1012B00078F490912602113019F0822B892309C00D
:1012C000922B892B06C0822B90912602892701C080
:1012D000822B0E94DD0491C01F70002339F0812F02
:1012E0000E94ED048B2D0E94650387C08B2D0E9408
:1012F0008C03812F0E94E10480C08B2D92EF991600
:1013000079F1991538F0E0EF9E1659F0F1EF9F163C
:1013100011F159C023EF921651F134EF9316B9F041
:1013200052C0002379F084E08A1508F462C01F716E
:1013300081E090E001C0880F1A95EAF790912602AB
:1013400089271FC095E09A1508F453C0F0CF80910B
:101350009B0182FF19C0002329F0812F8F7126C0C5
:101360000023D9F3812F8F710E94E10442C0002332
:1013700039F01F7181E001C0880F1A95EAF701C0AA
:1013800080E00E94DD0435C0002399F01F71812F99
:101390000E94ED0480919B0182FD07C0E8E01E9F42
:1013A000C0011124836080930502812F0E94ED0407
:1013B00020C081E00E94BA13F1E0FA15D0F482E077
:1013C0000E94BA1316C0002321F0AA2031F28B2DFF
:1013D00091CEAA2039F2893349F42FEF37EE83E01A
:1013E000215030408040E1F700C000008B2D0E946A
:1013F000930388EF8C0D843010F40E94F31CDD20E1
:1014000061F18091050280FD28C0F7011282859567
:10141000859585950E94ED04C7010E94DB058091AA
:10142000050285958595859529960FB6F894DEBFBA
:101430000FBECDBFDF91CF911F910F91FF90EF9025
:10144000DF90CF90BF90AF909F908F907F906F90E4
:101450005F904F903F900C94E10429960FB6F8945A
:10146000DEBF0FBECDBFDF91CF911F910F91FF90D7
:10147000EF90DF90CF90BF90AF909F908F907F9034
:101480006F905F904F903F900895CF93DF93CDB7CB
:10149000DEB7AA970FB6F894DEBF0FBECDBF84B7F4
:1014A000877F84BF0FB6F894A8958091600088610B
:1014B00080936000109260000FBE90E080E80FB64D
:1014C000F89480936100909361000FBE85B78068A7
:1014D00085BF85B7806885BF86E99FE090937B01D3
:1014E00080937A010E94FA190E94191A8091E200F1
:1014F00084608093E200789480911C028823A1F09C
:101500001091E9001F709091EC00892F817090FD7F
:1015100080E8182B1092E9008091E80083FD0E947A
:10152000DE161F701093E90082E084BD93E095BD44
:101530009AEF97BD80936E000E94A31D811102C097
:101540000E94941DA3E1B1E02DE131E0AD0101E085
:1015500010E0FA018191AF01E82FE295EF70F0E021
:1015600061A18F70580102C0AA0CBB1C8A95E2F7DA
:10157000C5019A2D9095962391A392A1892B82A3C0
:101580002417350731F74DE151E064E271E08A013B
:10159000EE24E394F12CF80181918F01E82FE2957C
:1015A000EF70F0E0D1A08F70570102C0AA0CBB1CF5
:1015B0008A95E2F7C5019A2D90959D2191A392A15C
:1015C000892B82A36017710731F701E010E0FA015F
:1015D0008191AF01E82FE295EF70F0E0F1A08F70FC
:1015E000580102C0AA0CBB1C8A95E2F7C5019A2DCE
:1015F00090959F2191A392A1892B82A364177507CF
:1016000031F761E070E08D91E82FE295EF70F0E046
:1016100041A18F706B0102C0CC0CDD1C8A95E2F7F2
:10162000C6019C2D9095942391A392A1892B82A30E
:101630002A173B0741F7ECE9F1E086EA91E0ABEBD2
:10164000B1E011921D928E179F07D9F786E490E0C2
:101650000E94711FAC01909399018093980120E042
:1016600030E0FA01E20FF31F97E011929150E9F791
:10167000295F3F4F26343105A1F780E090E00E94BA
:10168000021F893E9E4F21F40E94A31D811102C0BA
:101690000E94161382E090E00E94FA1E8093B0012F
:1016A00084E090E00E94FA1E182F82E290E00E94EF
:1016B000FA1E212F30E0382B30939B0120939A01A2
:1016C0000E94DB0F1FEF21EE34E01150204030402C
:1016D000E1F700C000000E94DB0F8091BB0180FF9A
:1016E00008C06FEF7FEF80E090E00E94261F0E940D
:1016F000281C83E090E00E94FA1E0E94F804FAE39E
:10170000CF2EF1E0DF2E24E331E0A7E3B1E041E0AA
:1017100050E0CA16DB0669F18D91E82FE295EF7073
:10172000F0E061A18F705A0102C0AA0CBB1C8A951F
:10173000E2F7C5019A2D9095962391A392A1892B4A
:1017400082A3F90181919F01E82FE295EF70F0E00B
:1017500061A18F705A0102C0AA0CBB1C8A95E2F7E6
:10176000C5019A2D9095962391A392A1892B82A3CE
:10177000D0CF8FE891E00197F1F700C000006FEA49
:1017800071E044E351E007E311E0ECEAF1E06E17A9
:101790007F0759F1D8012D918D01822F82958F708D
:1017A00090E0DC0190968C9190E02F7002C09595AE
:1017B00087952A95E2F78170DA019D91AD01292F75
:1017C00022952F7030E0D90190962C9130E09F70D7
:1017D00002C0359527959A95E2F720FF02C092E066
:1017E00001C090E0892B8193D2CF86E091E0909365
:1017F00037028093360268E1462E512C70E4372E72
:10180000E5EC6E2EE1E07E2E80911C02853009F021
:1018100041C000E112E180911C02853009F034C022
:1018200080911C02843009F110923A020FB6F894AC
:10183000A895409260000FBE3092600083B7817F10
:10184000846083BF83B7816083BF7894889583B7B2
:101850008E7F83BF0FB6F894A89580916000886151
:1018600080936000109260000FBE80911B0288235D
:1018700091F20E94DB0FEBEBF1E0819181112BC320
:101880006E167F06D1F7C7CF10920F020E9428056F
:101890000E94F31C0E94DB0F81110E945F1CE1EB90
:1018A000F1E0ABEBB1E000E010E0302F2D91919131
:1018B0009227B1F180E0FF24F3944F2D492361F189
:1018C00089A33AA32F2181E009F480E08BA30E9431
:1018D0006B1C8160782F9DA38CA349A15AA16BA199
:1018E0008DA10E943105F801EF54FE4F8081F8264A
:1018F000F08229EA31E0E6EAF1E09CEAE92E91E0A3
:10190000F92E44E3A42E41E0B42E07E311E040E0B9
:1019100054E0852E912C41C08F5FFF0C873069F613
:101920000F5F1F4F0A30110509F0BFCF8FEF8EA355
:101930008FA318A60E946B1C8160782F9AA789A795
:101940004EA15FA168A58AA50E943105D2CF862B42
:10195000972B852BD7018D937D018F70A82FB0E039
:10196000AC5DBE4F9C91D9018C91890F8C938430D2
:101970000CF441C090819F5F908322242394082E11
:10198000000C990BB4010E943C1FD9018D939D015D
:1019900042293196C016D106A9F1D7015C91550FA5
:1019A000550FD8019D918D01A92FA295AF70B0E080
:1019B00090966C9170E09F7002C0759567959A95AE
:1019C000E2F761707727D5018D915D01A82FA2956F
:1019D000AF70B0E09096AC91B0E08F7002C0B5955A
:1019E000A7958A95E2F7CD0181709927A0FFAFCF27
:1019F00082E090E0ACCF8D3F1CF490819150BCCF41
:101A0000212CBDCF41110E945F1C86E0EEE2F2E086
:101A10008E010F5F1F4FD80101900D928A95E1F75B
:101A2000A0903002B0903102E0903202F090330288
:101A30001092300210923102109232021092330250
:101A4000A11003C0BB2009F45CC020912C0230918E
:101A50002D024FB7F89480913B0290913C02A091E7
:101A60003D02B0913E024FBFFC01E21BF30B9F0110
:101A700080912802882309F44FC2F39708F441C0EB
:101A80008F3F19F08F5F80932802AA2061F00E9497
:101A90007F1E1A1414F491E001C09FEF899F802DDE
:101AA000112480933002BB2061F00E947F1E1B1422
:101AB00014F491E001C09FEF899F802D1124809341
:101AC0003102309130023323E1F0209131022223A0
:101AD000C1F045EB3403C0011124992319F0909310
:101AE000300203C081E08093300255EB2503C00132
:101AF0001124992319F09093310203C081E080935F
:101B00003102E11003C0FF2009F45CC020912A02D9
:101B100030912B024FB7F89480913B0290913C0298
:101B2000A0913D02B0913E024FBFFC01E21BF30BBE
:101B300080912702882309F4F4C1E536F10508F401
:101B400041C08F3F19F08F5F80932702EE2061F034
:101B50000E945D1E1E1414F491E001C09FEF899F46
:101B6000802D112480933202FF2061F00E945D1EBF
:101B70001F1414F491E001C09FEF899F802D112460
:101B800080933302309132023323E1F0209133020B
:101B90002223C1F045EB3403C0011124992319F02D
:101BA0009093320203C081E08093320255EB25030B
:101BB000C0011124992319F09093330203C081E0EE
:101BC000809333028091300281110BC080913102E9
:101BD000811107C080913202811103C080913302CC
:101BE00081110E94BC1DAB82BC82ED82FE8286E028
:101BF000F801AEE2B2E001900D928A95E1F70E9401
:101C0000F31C9091AF01891721F00E94F31C80937F
:101C1000AF0180911C02843009F0F6CD83E08093FF
:101C2000E9008091E80082FFEFCD8091E80085FF18
:101C300021C00E94511B81111BC080E2E82EF12CB3
:101C4000580109C08091F100D5018D935D01B1E08B
:101C5000EB1AF10869F08091E80085FDF3CF8091DF
:101C6000E8008B778093E8000E94511B882399F34A
:101C700091E001C090E08091E8008B778093E800CC
:101C8000992309F4C1CDE9818E2F90E0FC013197B1
:101C9000E331F10508F0F5C0E059FF4F0C94501FF7
:101CA0001A8289E058C08A81823009F42CC18330BD
:101CB00051F0813009F0E5C00E945F1C9B838C834A
:101CC0007D836E83E0C0FE013396CE010D96ABEBB3
:101CD000B1E02D912193E817F907D9F7D4C08A8193
:101CE000823009F0CEC06B817C818D819E810E9403
:101CF000561F86E290E024C04C816B818A810E944D
:101D0000431D9D8307C1AD80BE80BA24AB24BA2495
:101D10008C81EB809A81EEE0EE9E70011124FCE84C
:101D20009F9FE00CF11C1124E80EF11CE80EF11C41
:101D30006B2DC70187960E94081F6A2DC7018896E0
:101D40000E94081FA0C00E940F1D9DC080E152C0CC
:101D500081E08A8389EA8B8396C0EA80FB80FE2437
:101D6000EF24FE248C80912C5801C701895A9D4F85
:101D70009501201B310B2815390508F084C029EA8C
:101D8000E21621E0F20630F40E94FA1ED501149604
:101D90008C9302C0F5011482FFEFEF1AFF0A2FEFB8
:101DA000A21AB20AE2CFEA80FB80FE24EF24FE24CE
:101DB0008C80912C5801C701895A9D4F9501201B99
:101DC000310B2815390508F05EC039EAE31631E019
:101DD000F30628F4D50114966C910E94081FBFEFFA
:101DE000EB1AFB0AEFEFAE1ABE0AE5CF0E94FF1C0A
:101DF0004AC084E08A8347C0EA80FB80FE24EF2447
:101E0000FE248C80912C5801C70187969501201BD8
:101E1000310B28153905B8F5F0E3EF16F2E0FF06AF
:101E200030F40E94FA1ED50114968C9302C0F5017D
:101E30001482FFEFEF1AFF0A2FEFA21AB20AE4CFC3
:101E4000EA80FB80FE24EF24FE248C80912C580134
:101E5000C70187969501201B310B2815390598F489
:101E600030E3E31632E0F30628F4D50114966C91C2
:101E70000E94081FBFEFEB1AFB0AEFEFAE1ABE0A73
:101E8000E7CF8FEF898380911C02843009F0BCCCAE
:101E90008091E9008F702091EC00922F917020FDCD
:101EA00090E8F92EF82A82E08093E9008091E8001A
:101EB00080FF0CC040E050E060E270E0C8010E948A
:101EC000841B8091E8008E778093E8008F2D8F70BF
:101ED0008093E90099CC09BD19BD09B400FEFDCF7E
:101EE0008091D8008F7D8093D8008091E00082603F
:101EF0008093E0008091E00081FDFCCF10920F0202
:101F00000E94280588CC86E290E00E94FA1E1B827F
:101F10001C821D828E83B7CF2D32314008F4F1CD63
:101F2000B1CDED32F14008F44DCE0DCE80E00895F4
:101F300090919A0192FF0DC0282F2871283019F432
:101F4000877F846006C0282F2471243011F48B7F92
:101F5000886093FF0DC0282F2871283119F4877EDF
:101F6000846106C0282F2471243111F48B7E88618E
:101F700020919B0120FF0DC0382F3871383019F4A3
:101F8000877F816006C0382F3171313011F48E7F28
:101F9000886021FF0DC0282F2871283119F4877E11
:101FA000816106C0282F2171213111F48E7E886154
:101FB00094FD877E08952F923F924F925F926F9289
:101FC0007F928F929F92AF92BF92CF92DF92EF92C9
:101FD000FF920F931F93CF93DF9300D01F92CDB743
:101FE000DEB70CE911E091EA692E91E0792ED80173
:101FF00023E1E22E21E0F22E212CAA24A394B12C7D
:102000004D013C901C92F70181917F01E82FE295F0
:10201000EF702E2F30E03B832A83F90121A18F70CE
:10202000A50102C0440F551F8A95E2F7CA01242B6F
:1020300021A322A140954983242322A350EA5A9543
:10204000F1F76DE171E06B0120E030E0F6015190B5
:102050006F01452D42954F7050E0FA0140A14C9020
:1020600050E0F52DFF7002C055954795FA95E2F7BF
:1020700040FD07C04A2D022E01C0440F0A94EAF722
:1020800001C040E0442A4C922F5F3F4F273031057A
:10209000E9F6EA81FB8191A1F9819F23EA81FB8125
:1020A00091A392A1892B82A3119681E0F4019081E2
:1020B000931101C080E0282A6A167B0609F0A0CFA0
:1020C00040E050E0EE24E394F12C86EA882E81E093
:1020D000982EDB018D91BD01E82FE295EF70F0E0C5
:1020E00021A18F70D70102C0AA0FBB1F8A95E2F70A
:1020F000CD012A2B21A322A1A095A9832A2322A3C3
:10210000B0EABA95F1F79701042E01C0220F0A94A4
:10211000EAF7322E522E509421EA31E03B832A8393
:10212000A3E1CA2EA1E0DA2E612CAA80BB80D501E2
:102130007C90D6014D906D01242D22952F7030E0BA
:10214000D90190962C9130E0B42DBF7002C0359526
:102150002795BA95E2F720FD04C0272D2329D50144
:1021600004C0272D2521AA81BB812C932A813B8184
:102170002F5F3F4F3B832A83D5012C91721611F0BC
:10218000662463942A813B818216930671F691A19D
:102190003981392331A392A1892B82A326284F5F4D
:1021A0005F4F4730510509F094CF40910D024983AC
:1021B000442309F43FC00E946B1C20910B02309114
:1021C0000C02DC01A21BB30B9D0190930C028093C7
:1021D0000B02AF3FB10509F020F4AB2B09F471C03D
:1021E00002C02FEF30E010920D0210920A02E0912F
:1021F0009801F0919901BF016A5B7F4F90E030E058
:10220000AF01495F5F4F8081882341F0281718F0A4
:102210001082998103C0821B808339813196E41733
:10222000F50789F76E177F0759F730930D029093E2
:102230000A0247C02220E9F10E946B1C90930C0215
:1022400080930B02809198019091990180900D02EA
:10225000ABEBB1E0BC016A5B7F4FEE24E394F12C61
:1022600032E3B32EF80131918F012C91932E9226F7
:10227000FC0140E050E06701042E01C0CC0C0A9440
:10228000EAF7A92CAC2039F0A080A11004C0B082DC
:102290002C258824839431964F5F5F4F473051053A
:1022A00051F707962D9368177907E1F680920D0292
:1022B0000CC080E090910A02992339F08111C2CFBD
:1022C000BBCF2110BFCF81E0F5CF822D0F900F90B3
:1022D0000F90DF91CF911F910F91FF90EF90DF90C2
:1022E000CF90BF90AF909F908F907F906F905F90B6
:1022F0004F903F902F900895CF93DF9382389105B0
:1023000069F1B0F48133910509F46FC048F4893262
:10231000910509F465C08A32910509F46BC08AC041
:102320008533910509F457C089339105B9F082C00E
:10233000833E910571F138F4803E9105B1F0823E03
:10234000910511F177C0863E9105B9F1873E91055F
:10235000C9F1843E910509F06DC024C020919A0115
:1023600020FD53C021FD51C065C080919A0180FDC0
:1023700046C080919B0180FF48C080919A0184FDF6
:1023800050C183EE90E04FC180919A0182FF3AC024
:10239000F4CF80919A0182FD35C080919B0180FD30
:1023A00034C0EBCF80919B0181FF35C080919A01B1
:1023B00084FD37C187EE90E036C180919A0183FF9A
:1023C00027C0F4CF80919A0183FD22C080919B01A8
:1023D00081FD21C0EBCF80919A0185FD1FC021C0F6
:1023E00080919A0185FD1DC019C080919A0186FDDA
:1023F0001BC01DC080919A0186FD19C015C089E3DC
:1024000090E011C182EE90E00EC180EE90E00BC131
:1024100086EE90E008C184EE90E005C189E290E08C
:1024200002C185E390E0FFC08AE290E0FCC081E356
:1024300090E0F9C0811531E5930708F069C0811576
:1024400040E59407F0F09C0174E0369527957A9565
:10245000E1F7922F9370482F437021E030E002C0E3
:10246000220F331F4A95E2F73C68392B982F9F7053
:102470009695969540E2949FC0011124822B932B50
:10248000D2C0883E910568F5803E910508F0CBC02A
:10249000883A9105B8F4853A910548F0855AE82FB5
:1024A000F0E0E65CFE4F808190E09064BCC081303B
:1024B000910509F4B3C008F4B4C08430910508F460
:1024C000B0C0B1C08F3B910508F0ABC0885AE82F6F
:1024D000F0E0EE0FFF1FE35CFE4F8081918194647A
:1024E000A2C0811520E2920758F4811531E09307CC
:1024F00008F099C0803F910508F493C0906593C09F
:10250000811540E4940708F48CC09F70906A8BC0DA
:10251000811525E5920708F042C0811534E593073F
:1025200028F0982F8827846F906A7DC0811543E535
:102530009407B0F09C012370332741E050E002C0C3
:10254000440F551F2A95E2F7282F2695269580E2FD
:10255000289F90011124CA01822B932B9A6863C093
:10256000811522E5920728F4982F8827816F906AB9
:102570005AC09C012370332741E050E002C0440F51
:10258000551F2A95E2F7282F2695269580E2289F49
:1025900090011124CA01822B932B9C6844C0EC014A
:1025A000811539E59307A8F48115984528F09C2FEB
:1025B0008827806F906A37C0C11586E5D80788F5EF
:1025C0008C2F0E94980F8F7190E0982F882790622F
:1025D0002AC081152AE5920790F48C2F8F700E94F3
:1025E000980F94E0D695C7959A95E1F7CF70D0E013
:1025F000DC2FCC27D0699E01282BC90114C090562E
:102600008115904270F48D2F8F710E94980F282FA2
:102610002F71CE0199279062922B05C081E090E046
:1026200002C080E090E0DF91CF91089569EE7EEFE7
:1026300080E090E00E94261F60E082E090E00E942F
:10264000081F60E083E090E00E94081F10920902DA
:1026500060E084E090E00E94081F60E082E290E089
:102660000E94081F60E085E090E00E94081F60E083
:1026700086E090E00E94081F6FEF87E090E00E94E4
:10268000081F40E050E0BA0188E090E00E941A1F65
:1026900060E08DE090E00E94081F40E050E0BA0149
:1026A00088E190E00E941A1F60E087E190E00E94BC
:1026B000081F40E050E0BA018CE190E00E941A1F30
:1026C00060E070E080E290E00E94261F40E050E071
:1026D000BA0188E190E00E941A1F80E00E94761DF6
:1026E0000E94941D40E050E0BA018FE090E00E940B
:1026F0001A1F40E050E0BA0183E190E00C941A1FE9
:10270000809108028111109208020895809590919D
:102710000F02892380930F02089590910F028091F8
:102720000702892B20910602982F922B9093C501C6
:1027300080910802882389F0892B8093C501E7ECFA
:10274000F1E097E080E0915029F021912223D9F324
:102750008F5FF9CF81110E948013E0913602F091D2
:102760003702309731F00280F381E02D85EC91E063
:102770000994089520910502809582238093050293
:10278000982F977099F430E0482F082E000C550BC5
:102790002417350759F090919B0192FD07C085954C
:1027A000859585950E94E104109205020895CF93C6
:1027B000C0919B01C2FB992790F9981799F080FB73
:1027C000C2F9C0939B0160919A0184E090E00E945D
:1027D000081F6C2F82E290E00E94081F82E0CF91D8
:1027E0000C94BA13CF910895809104029091D30173
:1027F000891719F08F5F8770FBCF08950F931F9390
:10280000CF93DF938091D20182958F7009F05DC0E4
:102810008091CF01882309F458C08091040210915F
:10282000D3016091CD017091CE01C091D001D091C2
:10283000D10191E06F3F09F090E0292F06E0811768
:1028400009F443C0209721F07F3F21F030E003C01E
:1028500031E001C0322F90E030FD34C0089FF0011C
:10286000099FF00D1124DF01AC52BE4F11963C912F
:102870001197371327C03C91361324C012963C9110
:10288000129731111FC013964D915C9114974C1BF8
:102890005D0B483C5105B0F48091D2018F7080618E
:1028A0008093D201E752FE4F80818F7080618083D8
:1028B0008DEC91E00E94DB05DF91CF911F910F918C
:1028C0000C94F41301968770BACFDF91CF911F91CA
:1028D0000F910895CF93DF93EC010E94AE04BE01E7
:1028E0000E94691D0E947C11DF91CF9108959F92F3
:1028F000AF92BF92CF92DF92EF92FF920F931F930E
:10290000CF93DF93CDB7DEB761970FB6F894DEBFF4
:102910000FBECDBF8C0185E0F801DE011D96019050
:102920000D928A95E1F7F801E2809091CD016091D6
:10293000CE014091D0015091D1014115510531F0A6
:102940006F3F31F481E09F3F19F403C081E001C083
:1029500080E0F82FF1709F2E80FD1AC1F8013081C0
:102960002181C380D4808DECA82E81E0B82EF09018
:10297000CF01F601E41BF50BFF2009F4C6C08091DE
:10298000D201E83CF10508F091C0482F407F09F0E2
:1029900050C0621311C093130FC0FE2CE1100CC085
:1029A0008F7080618093D201C5010E94DB05809108
:1029B000D201F801858329C1CD2831F02F3F31F4B0
:1029C00081E03F3F19F403C081E001C080E080FD59
:1029D00003C081E08E2502C080E090E0F82FF17006
:1029E000FF2E80FF1CC0809104024091D30156E06D
:1029F000841709F4E8C090E0589FF001599FF00D4A
:102A00001124EC52FE4F6181261306C060816313CE
:102A100003C06281E61203C001968770E9CFFE2CE5
:102A2000EE2009F4F2C08091D20181608093D2013E
:102A300049C0621306C0931304C0E11002C0F8013C
:102A400086C0C8010E94FC04882351F1EE2041F1A8
:102A50002091D201822F82958F7090E0029774F0BE
:102A60008091CD019091CE0198878F831986DB8666
:102A7000CA862C87CE0107960E94DB0586E0F80106
:102A8000ADECB1E001900D928A95E1F70E94FE1342
:102A90000AC06217C9F0C8010E94FC0481111EC05F
:102AA000C8010E94DB05FF24F394AFC0482F407F8C
:102AB00081F78DEC91E00E94DB0586E0F501119233
:102AC0008A95E9F7F12CA1C09313E5CFE110E3CF8C
:102AD000F8018583C8010E94DB0554C0EE2001F394
:102AE0002091D201822F82958F7090E0029734F26C
:102AF0008091CD019091CE019A8389831B82DD82E2
:102B0000CC822E83CE010196B7CFE83CF105D0F5FB
:102B1000FE2CEE2029F2621327C0931325C02091CA
:102B2000D20120FD18C0822F82958F70482F50E06F
:102B30004115510581F0F80125834F30510541F0D1
:102B40008F5F982F9295907F822F8F70892B85832E
:102B5000C8010E94DB0586E0F801ADECB1E0019010
:102B60000D928A95E1F751C0C8010E94FC048111C1
:102B700085CF8091D20181608093D201C8010E94EB
:102B8000DB0543C086E0F50111928A95E9F73DC067
:102B9000EE2009F485CFC8010E94FC04F82E88239A
:102BA00009F47ECF86E0F801ADECB1E001900D9222
:102BB0008A95E1F78091CD019091CE010E946A142F
:102BC0000E94FE1322C03D872E878D859E850E9420
:102BD0006A14292F22952F70223028F49F7039F023
:102BE000811105C00BC0243028F49F7049F4805E29
:102BF000883020F0C8010E94DB059F2CF92C05C00D
:102C0000F8019581907F99F7F9CF8F2D61960FB6D6
:102C1000F894DEBF0FBECDBFDF91CF911F910F9112
:102C2000FF90EF90DF90CF90BF90AF909F9008956E
:102C300080911E0287FF11C08091E80082FD05C0CF
:102C400080911C028111F8CF11C08091E8008B7730
:102C50000BC080911C02882349F08091E80080FF1E
:102C6000F8CF8091E8008E778093E8000895982F40
:102C7000973068F59093E900981739F07091EC005F
:102C80002091ED005091F00003C0242F762F50E0EA
:102C900021FD02C09F5FECCF3091EB003E7F30936F
:102CA000EB003091ED003D7F3093ED003091EB0073
:102CB00031603093EB007093EC002093ED00509363
:102CC000F0002091EE0027FDE5CF80E008958F70A1
:102CD0008093E90081E0089520912402309125023B
:102CE0002617370748F06115710539F42091E8007F
:102CF0002E772093E80001C0B901FC0120E06115A6
:102D0000710579F180911C028823F1F18530F1F190
:102D10008091E80083FD3CC08091E80082FD2EC0D8
:102D20008091E80080FFEBCF2091F3008091F200CA
:102D300090E0922B6115710551F08830910538F4BF
:102D400021912093F100615071090196F3CF21E0A8
:102D5000089709F020E08091E8008E778093E800E2
:102D6000CECF2111CFCF0AC080911C02882361F001
:102D7000853061F08091E80083FD0AC08091E80011
:102D800082FFF2CF80E0089582E0089583E0089505
:102D900081E008950895BC0184E00C94FE1BBC0101
:102DA00083E00C94FE1B80912602982F967096303B
:102DB00011F4886001C0877F0C94DD041F93CF93CA
:102DC000DF93CDB7DEB7AA970FB6F894DEBF0FBE7C
:102DD000CDBFEEE1F2E086E292E02091F100219396
:102DE0008E179F07D1F780911F02833009F463C0CB
:102DF00030F4813071F0823009F49FC0B6C08A305F
:102E000009F48BC08B3009F46EC0893009F0ADC075
:102E100020C080911E02813A09F0A7C08091E8008D
:102E2000877F8093E8008091220290912302892B72
:102E300021F468E082E192E003C060E080E090E08D
:102E400070E00E946C168091E8008B778093E80018
:102E50008CC080911E02813209F087C080912202CD
:102E600090912302009719F0029709F07EC080919B
:102E7000E800877F8093E8008091E80082FD05C02C
:102E800080911C028111F8CF70C02091F3008091D5
:102E9000F20090E0922B029731F48091F1008130A2
:102EA00011F0863021F48091F1008093110280911D
:102EB000E8008B7756C080911E02813A09F055C018
:102EC0008091220290912302892B09F04EC08091BB
:102ED000E800877F8093E8008091E80080FFFCCFC6
:102EE0008091120139C080911E028132F1F58091EA
:102EF000220290912302892BC1F58091E800877FFF
:102F00008093E8000E94181680912002809312019D
:102F100010920F020E94280528C080911E02813263
:102F200021F58091E800877F8093E8000E941816C1
:102F3000809121028093100218C080911E02813A74
:102F4000A1F48091E800877F8093E8008091E800F9
:102F500080FFFCCF809110028093F1008091E80007
:102F60008E778093E8000E9418168091E80083FF16
:102F7000DFC180911E0290911F02492F50E04A301C
:102F8000510508F0D5C1FA01ED57FF4F0C94501FC1
:102F9000803821F0823809F0CBC108C080911A0234
:102FA00090911B02992389F082600FC080912202C8
:102FB0008F70873008F0BCC18093E9008091EB00EE
:102FC00085FB882780F91092E9009091E800977FAF
:102FD0009093E8008093F1001092F10070C1282FC7
:102FE0002D7F09F0A5C1882319F0823061F0A0C1BE
:102FF00080912002813009F09BC1933009F080E07C
:1030000080931B022EC08091200281112AC08091E2
:1030100022028F702FEF280F263008F089C180938D
:10302000E9002091EB0020FF1CC0933021F4809137
:10303000EB00806214C09091EB0090619093EB00E4
:1030400021E030E0A90102C0440F551F8A95E2F744
:103050004093EA001092EA008091EB008860809330
:10306000EB001092E9008091E800877F8093E800F0
:103070000E9418165DC181115BC1109120021F775B
:103080008091E3008078812B8093E3008091E800B9
:10309000877F8093E8000E9418168091E80080FFE7
:1030A000FCCF8091E30080688093E300111102C09F
:1030B00082E001C083E080931C023AC180588230D4
:1030C00008F036C120912002309121022C3D53E0BE
:1030D000350779F583E08A838AE289834FB7F894CC
:1030E000DE01139620E03EE051E2E32FF0E0509342
:1030F0005700E49120FF03C0E295EF703F5FEF704F
:103100008E2F90E0EA3010F0C79601C0C0968D93E4
:103110009D932F5F243149F74FBF8091E800877F4F
:103120008093E8006AE270E0CE0101960E946C167E
:10313000B4C08091220290912302432F552743303F
:103140005105A9F068F44130510509F400C142303D
:10315000510509F0EDC08BE590E0E7EAF2E04BC0E5
:103160004132510529F14232510589F1E1C0C901CD
:10317000992781309105A1F058F0029709F0D8C045
:10318000E4E1F3E0E4918E2F90E0E4E1F3E030C07D
:10319000E6E5F3E0E4918E2F90E0E6E5F3E028C069
:1031A000EAE3F3E0E4918E2F90E0EAE3F3E020C05D
:1031B0008330910508F0BCC0880F991FFC01EC58C2
:1031C000FE4F0190F081E02D89E090E014C0833043
:1031D000910508F0ADC0FC01EE0FFF1FE259FE4F54
:1031E0000190F081E02DDC01A559BE4F8C9190E05B
:1031F000009709F49DC02091E800277F2093E80004
:1032000020912402309125022817390708F4C901BA
:1032100040E0009789F120911C02222309F43DC06F
:103220002530D9F12091E80023FD37C02091E80036
:1032300022FD2FC02091E80020FFEBCF4091F3004A
:103240002091F20030E0342B009759F028303105FE
:1032500040F444914093F100319601972F5F3F4F26
:10326000F3CF41E02830310509F040E02091E8003B
:103270002E772093E800CDCF4111CDCF0AC08091A9
:103280001C02882351F0853041F08091E80083FDD5
:1032900004C08091E80082FFF2CF8091E8008B7734
:1032A0008093E80045C0803809F042C08091E80072
:1032B000877F8093E80080911D028093F1008091C8
:1032C000E8008E77D3CE811133C080912002909197
:1032D00021029927029764F58091E800877F809307
:1032E000E8001091200210931D020E94181611117F
:1032F00006C08091E30087FD02C081E001C084E048
:1033000080931C0242E061EC81E00E94371642E2A9
:1033100061EC84E00E94371642E261EC82E00E9498
:10332000371642E260EC83E00E94371680911C025F
:103330008091E80083FF10C08091E800877F809330
:10334000E8008091EB0080628093EB0005C082E191
:1033500090E0E2E0F3E04FCFAA960FB6F894DEBF1C
:103360000FBECDBFDF91CF911F9108951F920F9295
:103370000FB60F9211242F933F934F935F936F9348
:103380007F938F939F93AF93BF93CF93DF93EF93ED
:10339000FF93C091E900CF708091EC00D82FD170DD
:1033A00080FDD0E81092E9008091F000877F809343
:1033B000F00078940E94DE161092E9008091F000EF
:1033C00088608093F000CD2BCF70C093E900FF910F
:1033D000EF91DF91CF91BF91AF919F918F917F91AD
:1033E0006F915F914F913F912F910F900FBE0F9072
:1033F0001F901895E8EDF0E080818E7F8083109219
:10340000E2001092DA001092E100A0EEB0E08C91A0
:1034100081608C9380818F77808319BCA7EDB0E0A9
:103420008C918E7F8C9380818F7E808310920E0290
:103430000895CF92DF92EF92FF920F931F93CF9355
:10344000DF93C8EDD0E088818F7E8883E7EDF0E0E0
:1034500080818160808384E082BF81E080930E025E
:1034600088818E7F888302EE10E0F801108210922E
:10347000DA0081EEC82ED12CF601108288818F7778
:10348000888388818068888388818F7D888319BC40
:1034900010921C0210921D0210921B0210921A022E
:1034A00090EEE92EF12CF70180818B7F808388815B
:1034B0008160888342E060E080E00E943716F60178
:1034C00080818E7F8083F80180818160808380810C
:1034D00088608083F70180818E7F8083888180610E
:1034E0008883DF91CF911F910F91FF90EF90DF9034
:1034F000CF9008951F920F920FB60F9211242F9321
:103500003F934F935F936F937F938F939F93AF936B
:10351000BF93EF93FF938091E10082FF09C08091F8
:10352000E20082FF05C08091E1008B7F8093E10083
:103530008091DA0080FF2AC08091D80080FF26C0E9
:103540008091DA008E7F8093DA008091D90080FF2D
:1035500018C080E189BD82E189BD09B400FEFDCFBC
:1035600081E080931C0280910E0281110FC00E94A5
:10357000FA190E94191A8091E20084608093E20097
:1035800005C019BC10921C0210920E028091E1003D
:1035900080FF17C08091E20080FF13C08091E2009D
:1035A0008E7F8093E2008091E20080618093E20050
:1035B0008091D80080628093D80019BC85E0809308
:1035C0001C028091E10084FF30C08091E20084FF02
:1035D0002CC080E189BD82E189BD09B400FEFDCF28
:1035E0008091D8008F7D8093D8008091E1008F7EFC
:1035F0008093E1008091E2008F7E8093E2008091D1
:10360000E20081608093E20080911D02882311F026
:1036100084E007C08091E30087FD02C081E001C023
:1036200083E080931C0280911C028091E10083FF63
:1036300027C08091E20083FF23C08091E100877F53
:103640008093E10082E080931C0210921D02809121
:10365000E1008E7F8093E1008091E2008E7F809375
:10366000E2008091E20080618093E20042E060E04D
:1036700080E00E9437168091F00088608093F0000F
:10368000FF91EF91BF91AF919F918F917F916F913A
:103690005F914F913F912F910F900FBE0F901F9010
:1036A00018952091E4003091E50095E64091EC00FA
:1036B000842F817040FF23C08091E80080FD1DC0F1
:1036C00080911C02882399F0853099F08091EB005D
:1036D00085FD11C04091E4005091E50024173507A5
:1036E00029F3915011F09A01E1CF84E0089582E02E
:1036F000089583E0089581E0089580E00895409161
:10370000E80042FFDDCF0895EF92FF920F931F93E1
:10371000CF93DF937C018B010E94511B811119C053
:10372000E70101151105A1F08091E80085FD0AC0AF
:103730008091E8008E778093E8000E94511B8823D7
:1037400081F307C089918093F10001501109E9CFFD
:1037500080E0DF91CF911F910F91FF90EF9008953E
:1037600080911102089524E02093E9002FEF309119
:10377000E800215035FD06C035ED3A95F1F700001F
:103780002111F5CF2091E80025FF0BC040E050E06B
:1037900066E070E00E94841B8091E8008E77809341
:1037A000E8000895CF93DF9321E02093E9002FEF05
:1037B0003091E800215035FD06C035ED3A95F1F71E
:1037C00000002111F5CF2091E80025FF14C0EC0185
:1037D00040E050E068E070E00E94841B8091E800C7
:1037E0008E778093E80088E0FE01A2E1B2E00190CC
:1037F0000D928A95E1F7DF91CF91089580933F0272
:10380000709341026093400280911C028430F9F46D
:103810008093E9008FEF9091E800815095FD06C0FC
:1038200095ED9A95F1F700008111F5CF8091E800B0
:1038300085FF0DC040E050E063E070E08FE392E070
:103840000E94841B8091E8008E778093E8000895A1
:1038500087E797E790930108809300089AE088E152
:103860000FB6F894A895809360000FBE9093600007
:10387000FFCF78941F920F920FB60F9211248F935F
:103880009F93AF93BF9380913B0290913C02A09194
:103890003D02B0913E020196A11DB11D80933B02F5
:1038A00090933C02A0933D02B0933E02BF91AF9132
:1038B0009F918F910F900FBE0F901F9018952FB76B
:1038C000F89460913B0270913C0280913D0290918E
:1038D0003E022FBF08952FB7F89480913B0290913C
:1038E0003C02A0913D02B0913E022FBF08951F926D
:1038F0000F920FB60F9211248F939F93AF93BF93A4
:1039000080913A02811113C080913B0290913C0258
:10391000A0913D02B0913E024196A11DB11D809340
:103920003B0290933C02A0933D02B0933E02BF91B4
:10393000AF919F918F910F900FBE0F901F90189590
:103940009C012A5F3F4FFC014281461301C0128255
:10395000019682179307B9F708959C01FC013296EE
:103960009FEF80E04191461789F09F3F19F4411184
:1039700001C0982F8F5F8630A9F79F3F39F0F9017A
:10398000E90FF11D97FDFA9562830895089520913E
:103990003802309139022817390771F090933902B3
:1039A00080933802E0913602F0913702309721F08F
:1039B0000084F185E02D099408952091340230911E
:1039C00035022817390771F090933502809334023D
:1039D000E0913602F0913702309721F00680F781AE
:1039E000E02D09940895E0913602F0913702309766
:1039F00021F00190F081E02D099480E00895CF93AB
:103A0000DF93C7E5D2E060E0CE010E94081F219657
:103A1000C11584E0D807B9F7DF91CF910895CF920F
:103A2000DF92EF92FF920F931F93CF93DF93C0E04B
:103A3000D0E08E0104571F4F6E018EE0C80ED11CDE
:103A4000FE01E65AFC4FE590F4906F2DCE0187966B
:103A50000E94081F6E2DCE0188960E94081F229694
:103A6000CC15DD0569F70C171D0731F7E8010033A8
:103A70001240F9F6DF91CF911F910F91FF90EF90D7
:103A8000DF90CF9008950F931F93CF93DF93C42FB0
:103A9000D0E0CC0FDD1F2EE0629FC00DD11D1124A0
:103AA0003CE8839FC00DD11D1124CE0187960E9452
:103AB000FA1E082F10E0102F0027CE0188960E94D2
:103AC000FA1E9801282BC901DF91CF911F910F9108
:103AD0000895462F843038F47A3028F4673018F48B
:103AE000672F0C94431D80E090E00895CF93C82F7A
:103AF000811102C06FEF01C063E283E290E00E9497
:103B0000081FC11102C06FEF01C064E084E290E0C1
:103B10000E94081FC11102C06FEF01C063E185E27E
:103B200090E0CF910C94081F80E00E94761D60E029
:103B300086E290E00E94081F0E940F1D0E94FF1C59
:103B400081E00C94761D83E290E00E94FA1E83329D
:103B500081F484E290E00E94FA1E843051F485E200
:103B600090E00E94FA1E91E0833109F090E0892FE5
:103B700001C080E0817008950E946B1C209130028A
:103B8000211104C020913102222321F090932D02B3
:103B900080932C0220913202211104C02091330223
:103BA000222321F090932B0280932A02E091360287
:103BB000F0913702309749F082E080932E02048022
:103BC000F581E02D8EE292E009940895803F39F46A
:103BD0009091310297FF35C01092310259C0813F58
:103BE00029F4909131021916BCF32BC09091300248
:103BF000823F29F497FF25C01092300249C0833FCD
:103C000019F41916CCF31DC090913202893F29F4A2
:103C10001916BCF4109232023BC08A3F19F497FF88
:103C200010C0F8CF8B3F39F49091330297FF09C051
:103C3000109233022DC08C3F21F49091330219165B
:103C4000BCF39CE0980F953080F421E030E0A901AE
:103C500002C0440F551F9A95E2F7CA0180959091D2
:103C60002F02892380932F0213C08D3F21F480916E
:103C700029028E7F0BC08E3F21F4809129028D7F17
:103C800005C08F3F29F4809129028B7F8093290200
:103C900080913002811106C080913102811102C0F1
:103CA0001092280280913202811106C08091330265
:103CB000811102C01092270208958091290280FD8F
:103CC00016C081FD16C082FD18C08091270288238E
:103CD00091F0883290F428E0829FC001112468E2BC
:103CE00070E00E943C1F862F672B29F007C082E0FE
:103CF000089584E0089581E0089588E00895809112
:103D0000290280FD14C081FD14C082FD16C080917F
:103D10002802882381F0843180F422E3829FC0014D
:103D2000112464E170E00E943C1F862F08958CE00E
:103D3000089589E1089585E0089582E30895803F1C
:103D400021F40E947F1E819504C0813F29F40E94C6
:103D50007F1E809331020895823F21F40E947F1ECE
:103D6000819504C0833F29F40E947F1E8093300216
:103D70000895893F19F40E945D1E05C08A3F31F401
:103D80000E945D1E81958093320208958B3F21F43D
:103D90000E945D1E819504C08C3F29F40E945D1E27
:103DA0008093330208959CE0980F953078F421E0D9
:103DB00030E0A90102C0440F551F9A95E2F7CA01ED
:103DC00090912F02892B80932F0208958D3F21F42B
:103DD0008091290281600BC08E3F21F480912902DD
:103DE000826005C08F3F29F480912902846080930E
:103DF00029020895F999FECF92BD81BDF89A9927BD
:103E000080B50895A8E1B0E042E050E00C942E1F88
:103E1000262FF999FECF92BD81BDF89A019700B483
:103E2000021639F01FBA20BD0FB6F894FA9AF99A23
:103E30000FBE08950396272F0E94091F0E94081F96
:103E4000252F0E94091F242F0C94091F0196272F4C
:103E50000E94091F0C94081FDC01CB01FC01F99999
:103E6000FECF06C0F2BDE1BDF89A319600B40D92C6
:103E700041505040B8F7089597FB072E16F4009470
:103E800007D077FD09D00E945D1F07FC05D03EF4E6
:103E9000909581959F4F0895709561957F4F0895F6
:103EA000EE0FFF1F0590F491E02D099469279627E6
:103EB00069277827872778270895AA1BBB1B51E11C
:103EC00007C0AA1FBB1FA617B70710F0A61BB70B8A
:103ED000881F991F5A95A9F780959095BC01CD012F
:103EE00008950F931F93CF93DF938230910510F4C1
:103EF00082E090E0E0914402F091450220E030E061
:103F0000A0E0B0E0309719F1408151810281138126
:103F100048175907C8F08417950769F4109731F0CE
:103F200012960C93129713961C9327C00093440289
:103F30001093450222C02115310519F0421753078D
:103F400018F49A01BD01EF01DF01F801DBCF211563
:103F50003105F9F0281B390B2430310580F48A81B2
:103F60009B816115710521F0FB019383828304C05D
:103F70009093450280934402FE01329644C0FE01B4
:103F8000E20FF31F819391932250310939832883E3
:103F90003AC02091420230914302232B41F42091F8
:103FA0000201309103013093430220934202209199
:103FB0000001309101012115310541F42DB73EB7C3
:103FC0004091040150910501241B350BE091420200
:103FD000F0914302E217F307A0F42E1B3F0B2817C2
:103FE000390778F0AC014E5F5F4F2417350748F072
:103FF0004E0F5F1F5093430240934202819391936F
:1040000002C0E0E0F0E0CF01DF91CF911F910F916E
:104010000895CF93DF93009709F481C0FC01329794
:1040200013821282A0914402B0914502109781F44C
:1040300020813181820F931F2091420230914302EF
:104040002817390751F5F0934302E093420267C005
:10405000ED0120E030E0CE17DF0740F44A815B81BC
:104060009E0141155105F1F0EA01F5CFD383C283DA
:1040700040815181840F951FC817D90759F4888151
:104080009981840F951F0296918380838A819B81F9
:10409000938382832115310529F4F0934502E0933F
:1040A00044023DC0E901FB83EA8349915991C40F61
:1040B000D51FEC17FD0761F480819181840F951F56
:1040C0000296E90199838883828193819B838A8305
:1040D000E0E0F0E012968D919C911397009719F013
:1040E000FD01DC01F7CF8D919C9111979D012E5F11
:1040F0003F4F820F931F20914202309143022817B5
:10410000390769F4309729F410924502109244025D
:1041100002C013821282B0934302A0934202DF9145
:08412000CF910895F894FFCF40
:1041280000004A022000B01BD21BB31BCF16CB16CF
:10413800CA160191909466FF0000000000F4F5F69D
:10414800F731333200FF0100010000FFFF000001DA
:104158000001FF00C6349797C634818283E200E9E4
:1041680000EA00B500B600B700CD008301CC008A94
:10417800019201940121022302240225022602272A
:10418800022A02B300B4006F00700040227B67026D
:0A4198004502CA01B902D202F20288
:00000001FF
